:100000000C944A080C9472080C9472080C947208B0
:100010000C9472080C9472080C9472080C94720878
:100020000C9472080C9472080C94A3130C9415147D
:100030000C9472080C9472080C9472080C94720858
:100040000C9472080C9472080C9472080C94720848
:100050000C9472080C9472080C9472080C94420A66
:100060000C9472080C9472080C9472080C94720828
:100070000C9472080C9472080C9472080C94720818
:100080000C94870C0C9472080C9472080C947208EF
:100090000C9472080C9472080C9472080C947208F8
:1000A0000C9472080C9472080C947208084AD73B9E
:1000B0003BCE016E84BCBFFDC12F3D6C74319ABD37
:1000C00056833DDA3D00C77F11BED9E4BB4C3E915B
:1000D0006BAAAABE000000803F05A84CCDB2D44E4A
:1000E000B93836A9020C50B9918688083CA6AAAA4C
:1000F0002ABE000000803F00F0F89C8E8783878E28
:100100009CF8F00000FEFF0303030303070EFCF856
:100110000000FEFF0303030303070EFCF80000FFCB
:10012000FF00000000000000FFFF0000FEFF8383CF
:10013000838383C7EE7C380000F8FC0E07030303BB
:10014000070EFCF800003F7FE0C08080C0E07F3FEA
:10015000FFFF01010101010101FFFF0000FFFF0C92
:100160000C0C0C1C3E77E3C100007FFFC0C0C0C078
:10017000C0E0703F1F00001F3F70E0C0C0C0E070D3
:100180003F1F00007FFFC1C1C1C1C1E3773E1C001A
:10019000001F3F70E0C0C0C0E0703F1F00000000C3
:1001A0000001FFFF01000000D5F08D14A1C881CF30
:1001B000D9F1AF20008778008F7003FFFFFFFF01A8
:1001C000FC0231EC0303C438837803FFFFFFFF1EFA
:1001D00084710EE01F00FF007F807FFFFFFF1F4044
:1001E000BF00FF00000F10E609F007FFFFFFFEF859
:1001F00003BC401FE000FF00FE01FCFFFFFFFF010A
:10020000FC07F00F00F00FE01F60FFFFFFFFFF0093
:10021000FF007F8000010EF803FC01CFFFFFFFFE0F
:10022000E00FF007F880601FC03F80E7FFFFFF830B
:100230003C4299648300000404E810E8E808E8E818
:1002400010E806000000006020100D121E121E12A1
:100250000D10206000000000000000000000000001
:10026000000000000000000000000000000000008E
:10027000000000000000000000000000000000007E
:10028000000000000000000000000000000000006E
:1002900000000000FF0101010101010101FF000058
:1002A000FF0000000000000000000000000000004F
:1002B000000000000000000000000000000000003E
:1002C000000000000000000000000000000000002E
:1002D000000000000000000000000000000000001E
:1002E000000000000000000000000000000000000E
:1002F00000000000000000000000000000000000FE
:1003000000000000C0A090909090909090909090ED
:1003100090909090FF0000000000000000FFC0A03F
:100320009F9090909090909090909090909050305E
:10033000F0000000000000000000000000000000CD
:1003400000000000000000000000000000000000AD
:10035000000000000000000000000000000000009D
:10036000000000000000000000000000000000008D
:10037000000000000000000000000000000000007D
:1003800000000000FF00000000000000000000006E
:10039000000000000000000000000000000000005D
:1003A00000000000000000000000000000FF0080CE
:1003B0007F000000000000000000000000000000BE
:1003C000000000000000000000000000000000002D
:1003D000000000000000000000000000000000001D
:1003E000000000000000000000000000000000000D
:1003F00000000000000000000000000000000000FD
:1004000000000000010101010101010101010101E0
:1004100001010101FF0000000000000000FF0101D8
:10042000FF010101010101010101010101010100BF
:1004300000000000000000000000000000000000BC
:1004400000000000000000000000000000000000AC
:10045000000000000000000000000000000000009C
:10046000000000000000000000000000000000008C
:10047000000000000000000000000000000000007C
:10048000000000000000000000000000000000006C
:1004900000000000FF0000000000000000FF00005E
:1004A000FF0000000000000000000000000000004D
:1004B000000000000000000000000000000000003C
:1004C000000000000000000000000000000000002C
:1004D000000000000000000000000000000000001C
:1004E000000000000000000000000000000000000C
:1004F00000000000000000000000000000000000FC
:1005000000000000000000000000000000000000EB
:1005100000000000FF0000000000000000FF0000DD
:10052000FF000000000000000000000000000000CC
:1005300000000000000000000000000000000000BB
:1005400000000000000000000000000000000000AB
:10055000000000000000000000000000000000009B
:10056000000000000000000000000000000000008B
:10057000000000000000000000000000000000007B
:10058000000000000000000000000000000000006B
:1005900000000000FF0000000000000000FF00005D
:1005A000FF0000000000000000000000000000004C
:1005B000000000000000000000000000000000003B
:1005C000000000000000000000000000000000002B
:1005D000000000000000000000000000000000001B
:1005E000000000000000000000000000000000000B
:1005F00000000000000000000000000000000000FB
:1006000000000000000000000000000000000000EA
:1006100000000000FF8080808080808080FF80401C
:100620003F0000000000000000000000000000008B
:1006300000000000000000000000000000000000BA
:1006400000000000000000000000000000000000AA
:10065000000000000007057D417D0507007F417512
:100660001575417F007F417D415F417F007F416380
:10067000497F0000007F41751D07007F415D417F7C
:10068000007F41751177447C007F415D5577007F85
:1006900041555D770000007F415D417F007F417DD6
:1006A000415F417F007F41555D7700000000FFFF03
:1006B000FF000000FFFFFF000000FFFFFF00000041
:1006C00022772288DC8822772288DC882277228899
:1006D000DC882277220000000000000000000000FB
:1006E000000000000000000000000000000000000A
:1006F00000808080808080808080800000000000FA
:1007000000000000000000000000000000000000E9
:1007100000000000000000000000000000000000D9
:100720000000000000000000000000000000FFFFCB
:10073000FF000000FFFFFF000000FFFFFF000000C0
:1007400022772288DD8822772288DD882277228816
:10075000DD88227722000000000000000000000079
:1007600000000000E020202020202020202038262B
:10077000212020202020202020202021263A2A2A43
:100780002E2424242420202060C00000000000002B
:100790000000000000000000000000000000000059
:1007A0000000000000008080808080800000FFFF4B
:1007B000FF000000FFFFFF000000FFFFFF00000040
:1007C000227722081D08227722081D082277220896
:1007D0001D08227722000000000000000000000039
:1007E00000000000FF80808080808080808000008A
:1007F00000000000000000000000000000000000F9
:100800000000808080808080C06021212121121220
:1008100012121212121212121212121212121212B8
:10082000121212121221405E405E5E403F00FFFF36
:10083000FF000000FFFFFF000000FFFFFF000000BF
:10084000FFFFFF000000FFFFFF000000FFFFFF00B1
:100850000000FFFFFF00001ED222222222222222BD
:100860002222222222222222222222222223222267
:100870002222222222222222222222222222222258
:100880002222232222222222222222222222222247
:1008900022222222222222322C202020202020202C
:1008A0004040408080800000000000000000FFFF0A
:1008B000FF000000FFFFFF000000FFFFFF0000003F
:1008C000FFFFFF000000FFFFFF000000FFFFFF0031
:1008D0000000FFFFFFF00C030000008080E06038A4
:1008E00030385098100C080C080C08060406344EDA
:1008F0004C36040604060406040302030203021B2A
:1009000026271A030203020302060406040604361D
:100910004C4E34060406080C080C080C1090583095
:10092000383070C0C000010102040810E000FFFF71
:10093000FF000000FFFFFF000000FFFFFF000000BE
:10094000FFFFFF000000FFFFFF000000FFFFFF00B0
:100950000000FFFFFF031C60808085879F98F0E701
:10096000A5A790888780808080808080808080801C
:100970008080808080808080808080808080808077
:100980008080808080808080808080808080808067
:10099000808080808080808080808080878890A711
:1009A000A5E7F0989F472510080402010000FFFF0B
:1009B000FF000000FFFFFF000000FFFFFF0000003E
:1009C000FFFFFF000000FFFFFF000000FFFFFF0030
:1009D0000000FFFFFF00000000000000000000001A
:1009E0000101060418107C62EA62DC40C040DC624F
:1009F000EA62DC40C040DC62EA62DC40C040DC62AB
:100A0000EA62DC40C040DC62EA62DC40C040DC629A
:100A1000EA62DC40C040DC62EA627C101804060135
:100A20000100000000000000000000000000FFFFC7
:100A3000FF000000FFFFFF000000FFFFFF000000BD
:100A4000FFFFFF000000FFFFFF000000FFFFFF00AF
:100A50000000FFFFFF00B00000A170E150964F269C
:100A6000900F1D070C009669004AE44A0048444074
:100A700000806810000F99FB8F9DBDBBFB77D4D41D
:100A8000DF1F1A1AFE7F5D5DFF805A0000A0A4AA36
:100A90000010BA3400FF5953F3FF9B9B9EFFB9B976
:100AA00096FF9595D19FF4940FFC295F91FF18381C
:100AB000F8FF9294FFFF95D5F7BFB5DDD7F18F8191
:100AC000F1F788C8F779C6467909FD9B090196F8C0
:100AD00000828182805071620077565600767637A8
:100AE00000A2B773010772060078275000733474B0
:100AF00000775176007F55F700477110003247723A
:100B0000007364730015A2750061679400009F6014
:100B100060F4F2F6F20102040810204080000000A8
:100B200000003E5B4F5B3E3E6B4F6B3E1C3E7C3E8F
:100B30001C183C7E3C181C577D571C1C5E7F5E1C9D
:100B400000183C1800FFE7C3E7FF0018241800FF57
:100B5000E7DBE7FF30483A060E2629792926407F51
:100B6000050507407F05253F5A3CE73C5A7F3E1C60
:100B70001C08081C1C3E7F14227F22145F5F005F4C
:100B80005F06097F017F006689956A60606060602A
:100B900094A2FFA29408047E040810207E2010086E
:100BA000082A1C08081C2A08081E101010100C1E09
:100BB0000C1E0C30383E3830060E3E0E060000008B
:100BC000000000005F00000007000700147F147F92
:100BD00014242A7F2A1223130864623649562050AF
:100BE0000008070300001C2241000041221C002ACB
:100BF0001C7F1C2A08083E08080080703000080886
:100C0000080808000060600020100804023E5149F6
:100C1000453E00427F400072494949462141494DC5
:100C2000331814127F1027454545393C4A4949314C
:100C300041211109073649494936464949291E00CB
:100C40000014000000403400000008142241141475
:100C5000141414004122140802015909063E415D92
:100C6000594E7C1211127C7F494949363E4141411F
:100C7000227F4141413E7F494949417F090909019C
:100C80003E414151737F0808087F00417F410020A9
:100C900040413F017F081422417F404040407F0295
:100CA0001C027F7F0408107F3E4141413E7F0909BD
:100CB00009063E4151215E7F0919294626494949C5
:100CC0003203017F01033F4040403F1F2040201F6F
:100CD0003F4038403F631408146303047804036101
:100CE00059494D43007F4141410204081020004111
:100CF00041417F040201020440404040400003079C
:100D0000080020545478407F2844443838444444F0
:100D100028384444287F385454541800087E090267
:100D200018A4A49C787F0804047800447D40002027
:100D300040403D007F1028440000417F40007C047B
:100D40007804787C080404783844444438FC182437
:100D5000241818242418FC7C08040408485454540B
:100D60002404043F44243C4040207C1C2040201CA0
:100D70003C4030403C44281028444C9090907C44A7
:100D800064544C44000836410000007700000041E4
:100D900036080002010204023C2623263C1EA1A1C3
:100DA00061123A4040207A385454555921555579AA
:100DB000412154547841215554784020545579406C
:100DC0000C1E5272123955555559395454545939CB
:100DD000555454580000457C410002457D420001B5
:100DE000457C40F0292429F0F0282528F07C545532
:100DF00045002054547C547C0A097F4932494949B2
:100E0000323248484832324A4848303A4141217AE1
:100E10003A42402078009DA0A07D39444444393DA9
:100E20004040403D3C24FF2424487E4943662B2F0C
:100E3000FC2F2BFF0929F620C0887E09032054547B
:100E400079410000447D413048484A3238404022D0
:100E50007A007A0A0A727D0D19317D2629292F28F8
:100E6000262929292630484D402038080808080836
:100E7000080808382F10C8ACBA2F102834FA000020
:100E80007B000008142A142222142A140895002238
:100E90000095AA005500AAAA55AA55AA000000FF6D
:100EA00000101010FF00141414FF001010FF00FFBA
:100EB0001010F010F0141414FC001414F700FF00CC
:100EC00000FF00FF1414F404FC141417101F10107A
:100ED0001F101F1414141F00101010F00000000049
:100EE0001F101010101F10101010F010000000FF45
:100EF000101010101010101010FF10000000FF1440
:100F00000000FF00FF00001F10170000FC04F41495
:100F1000141710171414F404F40000FF00F714144D
:100F20001414141414F700F7141414171410101FC9
:100F3000101F141414F4141010F010F000001F10FF
:100F40001F0000001F14000000FC140000F010F04F
:100F50001010FF10FF141414FF141010101F0000C5
:100F60000000F010FFFFFFFFFFF0F0F0F0F0FFFFD8
:100F7000FF0000000000FFFF0F0F0F0F0F38444469
:100F800038447C2A2A3E147E02020606027E027E35
:100F90000263554941633844443C04407E201E208E
:100FA00006027E020299A5E7A5991C2A492A1C4C33
:100FB0007201724C304A4D4D303048784830BC6236
:100FC0005A463D3E494949007E0101017E2A2A2AAE
:100FD0002A2A44445F444440514A444040444A51D0
:100FE000400000FF0103E080FF000008086B6B0871
:100FF0003612362436060F090F06000018180000B6
:10100000001010003040FF0101001F01011E0019F7
:101010001D1712003C3C3C3C0000000000080B0087
:10102000020202010009040000010202000005247E
:101030000010010524010101042402060524060014
:10104000010705810310004009040100020A0000A5
:10105000000705020240000007058302400000046B
:1010600003090412010002EF02014041233680000F
:10107000010102030141726475696E6F204C4C439B
:101080000041726475696E6F204C656F6E617264A9
:101090006F00A11E11241FBECFEFDAE0DEBFCDBF6F
:1010A00011E0A0E0B1E0EAEDF7E402C005900D9296
:1010B000AE38B107D9F726E0AEE8B1E001C01D9225
:1010C000AC37B207E1F718E0CAE4D8E004C02197D2
:1010D000FE010E94E023C934D107C9F70E944516DA
:1010E0000C94EB230C940000CF92DF92EF92FF92CE
:1010F0000F931F93CF93DF936C017A018B01C0E0B4
:10110000D0E0CE15DF0589F0D8016D918D01D601B3
:10111000ED91FC910190F081E02DC6010995892B9C
:1011200011F47E0102C02196ECCFC701DF91CF916F
:101130001F910F91FF90EF90DF90CF9008958091D5
:10114000A8010895089580919601E0919401F0918D
:101150009501882349F0CF010296909395018093E1
:101160009401859194910895CF01029690939501F1
:10117000809394018081918108956F927F928F92E4
:101180009F92AF92BF92CF92DF92EF92FF920F9316
:101190001F93CF93DF935C016B01102F98E0892E92
:1011A000912CE42EE694E694E694EE2DF0E0CA014C
:1011B00087709927892B41F5D5011796CD91DC9140
:1011C0001897C6019927BE010E94B8239927D50117
:1011D00015966D917C911697EC9FA001ED9F500D97
:1011E000FC9F500D1124840F951FFB01E80FF91F80
:1011F000111106C0C22FC09520812C23208327C047
:10120000C081C22BC08323C0C22FD0E04770642EA0
:10121000712C7F0183E0EE0CFF1C8A95E1F79E01A3
:1012200001C0220F4A95EAF7012FA701B601C501B7
:101230000E94BD08C4018619970902C0D595C795BB
:101240008A95E2F72C2FA701485F5F4FAACFDF9165
:10125000CF911F910F91FF90EF90DF90CF90BF90B3
:10126000AF909F908F907F906F9008955F926F9254
:101270007F928F929F92AF92BF92CF92DF92EF9226
:10128000FF920F931F93CF93DF93EC016A3061F4C9
:101290008D859E859C878B872C898F859889820F69
:1012A000911D988B8F8777C0CB84DC84693031F4B3
:1012B00089E0C80ED11CDC86CB866DC0162FEF846A
:1012C000F8889DEFC9169FEFD90654F48B8990E0FA
:1012D00004962B853C85820F931F9C878B875BC070
:1012E0008F819885C816D9068CF78DEFE8168FEF99
:1012F000F80664F389859A85E816F9063CF76032AA
:1013000008F41FE780EE810F9FE9910F9A3118F4DE
:101310009FEFE91AF90A8C3011F08B3119F49FEF25
:10132000E91AF90A869594E0899F50011124360143
:1013300084E0680E711C46011170F401EC19FD097E
:10134000EA0DFB1DEB5AF54F8491111103C08F700C
:10135000582E04C0582E52948FE058228C81882336
:1013600061F001E089899A89892B09F000E02FE07A
:10137000A701B401CE010E94BD080989252DA7014E
:10138000B401CE010E94BD089FEF891A990A861404
:10139000970499F69BCF81E090E0DF91CF911F9168
:1013A0000F91FF90EF90DF90CF90BF90AF909F9004
:1013B0008F907F906F905F900895089580E090E007
:1013C00008950E94E6233FB7F8948091CF01909151
:1013D000D001A091D101B091D20126B5A89B05C042
:1013E0002F3F19F00196A11DB11D3FBFBA2FA92FA4
:1013F000982F8827820F911DA11DB11DBC01CD0121
:1014000042E0660F771F881F991F4A95D1F708950C
:101410008F929F92AF92BF92CF92DF92EF92FF9204
:101420006B017C010E94E3094B015C01C114D104F2
:10143000E104F104F1F00E94E309DC01CB01881919
:101440009909AA09BB09883E9340A105B10570F32B
:1014500021E0C21AD108E108F10888EE880E83E085
:10146000981EA11CB11CC114D104E104F10419F7A8
:10147000DDCFFF90EF90DF90CF90BF90AF909F9027
:101480008F9008951F920F920FB60F9211242F93F1
:101490003F938F939F93AF93BF9380918E019091D1
:1014A0008F01A0919001B09191013091CE0123E084
:1014B000230F2D3720F40196A11DB11D05C026E88C
:1014C000230F0296A11DB11D2093CE0180938E01A2
:1014D00090938F01A0939001B09391018091CF01DF
:1014E0009091D001A091D101B091D2010196A11D9E
:1014F000B11D8093CF019093D001A093D101B093FF
:10150000D201BF91AF919F918F913F912F910F90F9
:101510000FBE0F901F9018952D9A0895BC0180E082
:1015200090E00C94080A8FB12CB193B130E0209573
:10153000309520743327A90123E0559547952A95C6
:10154000E1F7292F30E0209530952071332735952C
:10155000279535952795242B8095807F822B08959C
:1015600083B7817F83BF83B7816083BF889583B74B
:101570008E7F83BF08958EBD00000DB407FEFDCFA2
:1015800008951092A8013E983F9808953E9A3F9A78
:1015900081E08093A801089560387105D0F440344B
:1015A0005105B8F4E5E1FBE080E1849FD001A0782B
:1015B0001124A60F4770E40FF11D8491A951BE4F6D
:1015C000222319F06C91862B03C080956C918623A1
:1015D0008C9308952F923F924F925F926F927F92D9
:1015E0008F929F92AF92BF92CF92DF92EF92FF9233
:1015F0000F931F93CF93DF93CDB7DEB729970FB625
:10160000F894DEBF0FBECDBFFC016A3069F4248DB3
:10161000808D918D38E0239F800D911D1124918F35
:10162000808F178A168AAAC06D3009F4A7C09987DF
:101630008887F48C338C228C608C718C0689178996
:1016400000381105C4F0A885B9855C962C915C978B
:10165000422F50E056968D919C915797B6E02B9F64
:10166000800D911D1124E885F985978B868B258D3A
:1016700021116EC083C0F0E46F16710424F7C80115
:1016800025E0F29E800D911D112418161906DCF636
:101690008F2D90E09C838B83C301A8E0FA9E800D80
:1016A000911D11241816190674F6B5E06B9FB00150
:1016B0001124FB01E35EF44FFA83E98330E088856F
:1016C000998504969E838D83E981FA81E490353073
:1016D00009F4E12C430188E0482EE0FC02C0532CC1
:1016E00001C0522C51100BC0321009C0E6944A942C
:1016F0008B819C81880E991E4110EFCF1BC0680121
:101700008C2D801B8F1590F754018A2D88198F1509
:1017100068F4252DA501B6018D819E813F830E942D
:10172000CC0A9FEFA91AB90A3F81EFCFAFEFCA1ACF
:10173000DA0AE6CF3F5FEB81FC810E0F1F1F898124
:101740009A8101969A838983363009F0BDCF7BCF89
:101750006AEF64039001659F300D112420583F4FBC
:10176000281739075CF4A885B985ED91FC9111978C
:101770000190F081E02D6AE0CD01099581E090E0D3
:1017800029960FB6F894DEBF0FBECDBFDF91CF9183
:101790001F910F91FF90EF90DF90CF90BF90AF908F
:1017A0009F908F907F906F905F904F903F902F9081
:1017B0000895CF92DF92EF92FF920F931F93CF93F2
:1017C000DF930E94A308811520E8920761F48091BD
:1017D00071008D7F80937100109291004698479818
:1017E0001092C7018BC021E02093C701813020E80F
:1017F000920751F4809192019091930190939501F9
:10180000809394010E94A30897FD05C02091C60112
:10181000222309F43FC02091C50121113BC021E0E2
:101820002093C801EC01DF77209769F481E0809371
:10183000C90146983FE9C32E3FE0D32EE12CF12C9D
:10184000CAEFD0E014C08E0120E030E060E472E422
:101850008FE090E0A90198010E94B71F69017A0109
:1018600081E0C81AD108E108F1081092C901E0919D
:10187000E501F091E6010995811103C081E08093B3
:10188000C9018091C8018823B9F18091C9018111F2
:1018900033C003C01092C801C5CF46992DC0479AE6
:1018A0000E94A308009771F09C01DE010E940B20AA
:1018B000DC01CB0129E0B595A795979587952A95E9
:1018C000D1F703C08FEF9FEFDC01109290002AE068
:1018D00020939100D0929900C09298008093CA0101
:1018E0009093CB01A093CC01B093CD018091710076
:1018F00082608093710002C04798D2CFDF91CF9170
:101900001F910F91FF90EF90DF90CF9008951F925D
:101910000F920FB60F9211242F933F934F935F9323
:101920006F937F938F939F93AF93BF93EF93FF93A7
:101930008091CA019091CB01A091CC01B091CD01D1
:10194000892B8A2B8B2B81F18091C90181110BC0CE
:1019500098B180E4892788B98091C801882319F05B
:1019600088B1805888B98091CA019091CB01A0912B
:10197000CC01B091CD01181619061A061B06B4F455
:101980008091CA019091CB01A091CC01B091CD0181
:101990000197A109B1098093CA019093CB01A0934B
:1019A000CC01B093CD0102C00E94D90BFF91EF9101
:1019B000BF91AF919F918F917F916F915F914F9167
:1019C0003F912F910F900FBE0F901F9018959C0183
:1019D000E1E7F0E090819D7F908310929601E7ED22
:1019E000F1E0F0939501E0939401F0939301E0937B
:1019F0009201318320837383628380E090E8958332
:101A000084830C94D90B4F925F926F927F928F9246
:101A10009F92AF92BF92CF92DF92EF92FF920F937D
:101A20001F93CF93DF931F92CDB7DEB781E08093F2
:101A3000AB010E94931F28E330E040E050E00E9499
:101A4000B71F6B017C0120E4C20ED11CE11CF11C0C
:101A5000C092A9012C2D287FEC2DE695E695E69500
:101A6000F0E0E956FE4F6080712C022F10E061819A
:101A700070E066197709072E000C880B990B2983F3
:101A80000E94AD214B015C012981285F622F70E02B
:101A9000601B710B072E000C880B990B0E94AD2167
:101AA0009B01AC01C501B4010E9403214B015C0103
:101AB0006C2D70E080E090E00E94AB219B01AC01B6
:101AC000C501B4010E94D0226B017C01B301770CE7
:101AD000880B990B0E94AD212B013C01B801110F1D
:101AE000880B990B0E94AD21A50194010E94D02280
:101AF0009B01AC01C301B2010E941A209B01AC0101
:101B0000C701B6010E941B2020E030E040E450E411
:101B10000E941A200E947C216093AA010F90DF91FD
:101B2000CF911F910F91FF90EF90DF90CF90BF90DA
:101B3000AF909F908F907F906F905F904F9008959F
:101B4000EF92FF920F931F93CF93DF9300D000D0BB
:101B5000CDB7DEB77B018901841B950BBC01990FC2
:101B6000880B990B0E94AD219B01AC01C701801B22
:101B7000910BBC01990F880B990B29833A834B83F6
:101B80005C830E94AD2129813A814B815C810E9456
:101B90009A2020E030E044E353E40E94D0222BED71
:101BA0003FE049E450E40E9403210E9475212CE4A7
:101BB0003FEFC901861B970B28E631E0B9010E946F
:101BC000B82388599E4FB9010E94B8230F900F90F7
:101BD0000F900F90DF91CF911F910F91FF90EF9099
:101BE0000895CF92DF92EF92FF92CF93DF93EC01B3
:101BF000CB0128E631E0B9010E94B82388599E4FF5
:101C0000B9010E94B823BC0168567140072E000C30
:101C1000880B990B0E94AD2125E33AEF4EE85CE377
:101C20000E94D0220E943D236B017C01BE01DD0F8A
:101C3000880B990B0E94AD219B01AC01C701B60135
:101C40000E94D0229058DF91CF91FF90EF90DF90CB
:101C5000CF900895CF92DF92EF92FF92CF93DF93D0
:101C6000EC01CB0128E631E0B9010E94B823885984
:101C70009E4FB9010E94B823BC0168567140072EDF
:101C8000000C880B990B0E94AD2125E33AEF4EE83A
:101C90005CE30E94D0220E94FE206B017C01BE0109
:101CA000DD0F880B990B0E94AD219B01AC01C70190
:101CB000B6010E94D022DF91CF91FF90EF90DF908C
:101CC000CF900895CF92DF92EF92FF920F931F93E0
:101CD000CF93C091350107E911E081E1C82ED12CE5
:101CE000E12CF12CF801C1938F010E94931FA701F1
:101CF00096010E94B71FDC01CB010897A109B10929
:101D0000C80FC03120F0C03418F0CFE301C0C0E1EB
:101D1000F1E0083A1F0731F78091A7018093350160
:101D2000CF911F910F91FF90EF90DF90CF9008958A
:101D30002FB7F89483E08093E9009091E800892F11
:101D4000807295FF04C09091F20080E4891B2FBF40
:101D50000895CF93DF931F92CDB7DEB76983DC017F
:101D6000ED91FC910280F381E02D41E050E0BE0155
:101D70006F5F7F4F09950F90DF91CF91089583E0BA
:101D80008093E9008091F200882319F08AE3809320
:101D9000E80008950E94980E90E0089597FF04C00F
:101DA0009C0180E090E002C020E030E0821B930BB9
:101DB00077FF03C020E030E003C09B0160E070E0EB
:101DC000261B370B889FB001899F700D700D112461
:101DD000229FC001239F900D900D1124680F791F41
:101DE000072E000C880B990B0E94AD210E944B23FB
:101DF0000E947C21862F08958F929F92AF92BF926E
:101E0000CF92DF92EF92FF920F931F93CF93DF93C6
:101E10005C016B017A0180913D01882309F45BC06C
:101E20008091D601882309F456C08091D40180FFA7
:101E300005C08091E00082608093E000E70110E03F
:101E40000AEF83E0882E9AE3992E2097D9F10E9419
:101E5000980E81110AC0015009F43DC061E070E0A4
:101E600080E090E00E94080AF0CF282F30E0C217EF
:101E7000D3070CF48C2F4FB7F8948092E90090911F
:101E8000E80095FF1DC0282F30E0C21BD30BF601E0
:101E9000982F915020F081918093F100FACFC20EDB
:101EA000D31E112319F09092E80009C08091E80038
:101EB00085FD06C09092E80011E0209709F010E03F
:101EC0004FBFC3CF1111C3CF5D9884E68093D30178
:101ED0001E141F0444F081E090E0F5019383828397
:101EE00080E090E001C0C701DF91CF911F910F9179
:101EF000FF90EF90DF90CF90BF90AF909F908F902A
:101F000008952F923F924F925F926F927F928F929D
:101F10009F92AF92BF92CF92DF92EF92FF920F9378
:101F20001F93CF93DF93CDB7DEB728970FB6F89402
:101F3000DEBF0FBECDBF5A01822E912C9C01280D11
:101F4000391D37FDC4C0803891050CF0C0C09B011D
:101F5000200F311D37FDBBC0603471050CF0B7C0D8
:101F6000AB0177FF04C044275527461B570B47702A
:101F700055279B0177FF02C0295F3F4FE3E035956E
:101F80002795EA95E1F777FF08C02150310968E00D
:101F900070E0DB01A41BB50BAD01602F6695669563
:101FA000669570E0077011F06F5F7F4FDB01A20F45
:101FB000B31FBA83A98339017694762C662477946B
:101FC0006794680E791EE12CF12C00E010E02301EB
:101FD000B0E84B0E511C68E070E0DB01A41BB50BB0
:101FE000BC83AB8369817A812617370709F46FC0F8
:101FF0002830310509F46BC02F3FBFEF3B070CF4CD
:102000005BC0B201600F711FDB01A951BE4FBE83DF
:10201000AD83D801A60DB71DA951BE4F6C0160E07C
:1020200070E0681579050CF047C0E0E8CE16D104E1
:1020300009F442C0D7FC34C02F3FFFEF3F0709F43B
:1020400042C0FB01EE0DFF1DEA0DFB1DE491042EC5
:1020500001C0EE0F0A94EAF73C90E329EC93411596
:102060005105F1F027303105D9F0FB01EE0DFF1DD0
:10207000EA0DFB1DE4912E2E312CF1010B8002C0E4
:10208000F595E7950A94E2F7F887EF83ED81FE81F5
:102090003080EF81F885E3291F01ED81FE812082E8
:1020A0006F5F7F4FED81FE813196FE83ED83FFEF01
:1020B000CF1ADF0A1196B5CF2F5F3F4F00581F4F41
:1020C000E80CF91C8FCF4115510579F6E9CF289618
:1020D0000FB6F894DEBF0FBECDBFDF91CF911F9139
:1020E0000F91FF90EF90DF90CF90BF90AF909F90B7
:1020F0008F907F906F905F904F903F902F900895BA
:1021000020910606282329F490910506982381E062
:1021100009F480E00895009769F0FC010190002027
:10212000E9F73197AF01481B590BBC0187EE95E0E9
:102130000C94740880E090E008958F929F92AF9283
:10214000BF920F931F93CF93DF93CDB7DEB7A197C5
:102150000FB6F894DEBF0FBECDBF19A2423008F40F
:102160004AE08E010F5D1F4F842E912CA12CB12CC3
:10217000A50194010E94E91FE62FB901CA0101508F
:102180001109EA3014F4E05D01C0E95CD801EC9378
:10219000232B242B252B61F7C8010E948B10A196BD
:1021A0000FB6F894DEBF0FBECDBFDF91CF911F9168
:1021B0000F91BF90AF909F908F90089580E0E7EED1
:1021C000F1E081118FEF00248193819381938193BA
:1021D0000394D1F708958091E7018EBDE8EEF1E018
:1021E00081910DB407FEFDCF8EBD85E0E73EF80777
:1021F000B9F70DB407FEFDCF08955F926F927F92FD
:102200008F929F92AF92BF92CF92DF92EF92FF9206
:102210000F931F93CF93DF93EC018B017A01A901F8
:10222000461B570B57FF03C0519541955109C701F4
:102230008C1B9D0B97FF03C09195819591095524A7
:1022400053948417950714F0512C0AC09E2D8F2D9E
:102250007901292F382F9C2F8D2FE801092F182F56
:10226000EC16FD0654F4902F812F8901292F382F69
:102270009C2F8D2FE701E92EF82E37016C1A7D0A6D
:102280005901A01AB10AB7FE03C0B194A194B108D4
:10229000630177FE03C08FEFC81AD80AD594C7949C
:1022A0000217130714F08FEF01C081E0882E880F0A
:1022B0009908EC16FD06B4F021E0552019F0AE01A6
:1022C000B80102C0A801BE0180E096E00E94CC0ADD
:1022D000CA18DB08D7FE04C0080D191DC60CD71C90
:1022E0002196E7CFDF91CF911F910F91FF90EF9053
:1022F000DF90CF90BF90AF909F908F907F906F9026
:102300005F9008952F923F924F925F926F927F92CB
:102310008F929F92AF92BF92CF92DF92EF92FF92F5
:102320000F931F93CF93DF93CDB7DEB76C970FB6A4
:10233000F894DEBF0FBECDBF190149835A83285FD1
:102340003F4F3C872B879B01770F440B550B298B05
:102350003A8B4B8B5C8B9C01990F440B550B2D8B4F
:102360003E8B4F8B588FF101E190F1901F01E98175
:10237000FA81C190D190FA83E983B701C6010E9426
:10238000CE0E282F30E03C832B839701A60160E01E
:1023900070E080E090E00E94A00D98878F83F101AB
:1023A000C080D180E981FA81E080F180B601C70167
:1023B0000E94CE0E482E512C9601A70160E070E0DD
:1023C00080E090E00E94A00D3C0169897A898B89A8
:1023D0009C890E94AD214B015C01600E711EB3010E
:1023E000C2010E94F10D9B01AC016D897E898F892C
:1023F000988D298F3A8F4B8F5C8F0E94AD216B0196
:102400007C01B301C2010E942A0E2B013C018F8185
:102410009885800F911F9E878D87BC018B819C8141
:102420000E94F10D6F83788789879A876D857E85F5
:102430008B819C810E942A0E6B837C838D839E837B
:10244000298D3A8D4B8D5C8DC501B4010E941B20F6
:102450000E9475216D877E878F87988BA3019201DB
:10246000C701B6010E941B200E9475212B013C016F
:102470002F81388549855A85C501B4010E941B20EA
:102480000E9475214B015C012B813C814D815E8155
:10249000C701B6010E941B200E947521DC01CB01FF
:1024A0002D853E85A201B4010E94FD10EB85FC85BF
:1024B0002E163F0609F057CF6C960FB6F894DEBF84
:1024C0000FBECDBFDF91CF911F910F91FF90EF9085
:1024D000DF90CF90BF90AF909F908F907F906F9044
:1024E0005F904F903F902F900895FC018091D6010E
:1024F000811103C08FEF9FEF08959FB7F89482E09A
:102500008093E9002091F20030E01216130614F4D3
:1025100021E030E02115310559F0289884E68093B8
:10252000D5018091F10080838091F200882319F019
:102530009FBFC90108958BE68093E800F9CF809191
:102540001E0681110DC082E080931A0684E08093FC
:102550001B0610921D0610921C0681E080931E0639
:102560008AE196E00895FC018485958597FD0BC06E
:102570009FB7F89482E08093E9008091F2009FBFBA
:1025800090E0019608959FB7F89482E08093E90067
:102590008091F2009FBF90E0089540917A0650919B
:1025A0007B06209178063091790642175307B4F4E0
:1025B0009091E8009570E1F39091E80092FD19C0C8
:1025C0008093F10080917A0690917B0601968F733B
:1025D0009927892B19F48EEF8093E80080917A0671
:1025E00090917B06019690937B0680937A0681E01A
:1025F000089580E00895DF92EF92FF920F931F936A
:10260000CF93DF93D82E8A017B01E40EF51EEB01F8
:10261000CE15DF0571F0D7FE03C0FE01849101C025
:1026200088810E94CD1221968111F2CF8FEF9FEF0A
:1026300001C0C801DF91CF911F910F91FF90EF90E2
:10264000DF900895615030F02091F100FC0120836B
:102650000196F8CF289884E68093D5010895CF930A
:10266000DF931F92CDB7DEB7FC018485958597FD7A
:1026700005C02FEF3FEF358724870BC0CE010196B1
:102680000E947512019719F4898190E002C08FEFC2
:102690009FEF0F90DF91CF9108950F931F93CF93EA
:1026A000DF931F92CDB7DEB78C01FC018485958541
:1026B00097FF0EC0CE0101960E947512019719F482
:1026C000298130E002C02FEF3FEFF80135872487E2
:1026D000F801848595850F90DF91CF911F910F911F
:1026E00008950F931F93CF93DF931F92CDB7DEB75B
:1026F00082E0898342E450E06DE170E180E80E946D
:10270000FB120E949F12DC0112960D911C911397EF
:102710000115110569F0D801ED91FC910280F3815A
:10272000E02DBE016F5F7F4FC801099597FF07C07D
:1027300089810F90DF91CF911F910F910895F8013A
:1027400000851185E5CF1F920F920FB60F921124CD
:102750008F939F938091E1009091E100937F9093FC
:10276000E10083FF0FC01092E90091E09093EB002D
:102770001092EC0092E39093ED001092D60198E055
:102780009093F00082FF20C093E09093E900909135
:10279000F200992319F09AE39093E8009091D30105
:1027A000992339F09091D30191509093D3019923BB
:1027B00089F19091D501992339F09091D5019150EB
:1027C0009093D501992341F184FF10C08091E200DC
:1027D0008E7E81608093E2008091E1008F7E809305
:1027E000E1008091D4018E7E806111C080FF16C00F
:1027F0008091E2008E7E80618093E2008091E10012
:102800008E7E8093E1008091D4018E7E81608093E2
:10281000D40104C05D9ACDCF289AD6CF9F918F91D5
:102820000F900FBE0F901F9018951F920F920FB62A
:102830000F921124CF92DF92EF92FF920F931F938A
:102840002F933F934F935F936F937F938F939F93B8
:10285000AF93BF93EF93FF93CF93DF93CDB7DEB7E3
:102860006C97DEBFCDBF1092E9008091E80083FF36
:10287000EDC168E0CE0145960E94221382EF80935D
:10288000E8008D8987FF05C09091E80090FFFCCF9C
:1028900003C09EEF9093E800982F907609F0C6C091
:1028A0009E892F89188D91110CC0803829F4809150
:1028B00077068093F10002C01092F1001092F100AF
:1028C00048C1422F50E0512B913051F4811141C148
:1028D0004130510509F03DC1809177068D7F0BC0D5
:1028E000933061F4811135C14130510509F031C196
:1028F000809177068260809377062BC1953041F4F2
:102900008091E80080FFFCCF20682093E30021C184
:10291000963009F05FC0EB8CFC8C1092E9001092AD
:102920007B0610927A06123091F510927906109279
:1029300078060E94711399E0BE016F5F7F4FDB0143
:10294000E92F1D92EA95E9F799831A8391E09E8316
:1029500090EA98879AEF998720917A0630917B06C2
:10296000275F3F4F3C832B838D831092E9001092A9
:102970007B0610927A06F0927906E092780649E09A
:1029800050E080E00E94FB120E947113E2C0F092BE
:102990007906E09278060E949F12DC011296ED9073
:1029A000FC901397E114F10409F4C0C0D701ED9134
:1029B000FC910480F581E02DBE016B5E7F4FC70165
:1029C0000995009719F00CF0C4C0C7C0F701E08466
:1029D000F184E8CF973009F4C0C0983021F481E049
:1029E0008093F100B6C0993009F0B3C0837009F04C
:1029F000B4C0E9E7F1E081E021E036E3908199237A
:102A000061F08093E9002093EB0091919093EC00AA
:102A10003093ED008F5F873089F78EE78093EA006F
:102A20001092EA008F898093D60193C08B8D9C8D84
:102A30001092E90010927B0610927A069093790624
:102A400080937806898D811156C08E899D89913A2F
:102A500059F4813209F081C047E050E066E371E04B
:102A600080E00E94FB1275C0913209F076C083327B
:102A700089F4888D90E0982F88272F89822BA0E0F9
:102A8000B0E080933E0190933F01A0934001B0934A
:102A900041015FC0803269F48091E80082FFFCCF81
:102AA00067E086E391E00E9422138BEF8093E800B9
:102AB00006C0823209F04DC08F8980933D0180911C
:102AC0007606882319F0EEEFFAE002C0E0E0F8E0C5
:102AD0008091360190913701A0913801B091390170
:102AE000803B9440A105B10509F07BC080913D0178
:102AF00080FF93C076C00E949F12DC0112960D9158
:102B00001C9113970115110541F1D801ED91FC912C
:102B10000190F081E02DBE016B5E7F4FC8010995E9
:102B2000811117C0F80100851185ECCF113009F42F
:102B30004EC0133091F48F89882309F445C0823048
:102B400081F440E860E181E890E10E94081F882359
:102B500021F08EEF8093E80079C081E28093EB0052
:102B600075C0813029F440E86BE085E790E1EDCF56
:102B7000833099F70E949F12DC011296ED90FC9031
:102B800013978E010F5F1F4F6801E114F10479F074
:102B9000D701ED91FC910680F781E02DB801C701C6
:102BA0000995080F111DF701E084F184EECFD801DB
:102BB0001C92F60101900020E9F73197BF016C19D2
:102BC0007D0940E0C601C1CF6FE570E102C063E658
:102BD00070E16115710509F2FB01449150E080E854
:102BE00040CF0FB6F894A8958091600088618093DB
:102BF0006000109260000FBEA895EE3F2AE0F20739
:102C000039F08091FE0A9091FF0A91838083A1CFD1
:102C10001092FF0A1092FE0A9CCFEE3F8AE0F8075E
:102C200031F0808191819093FF0A8093FE0A87E7BB
:102C300097E7918380839BE088E10FB6F894A8958D
:102C4000809360000FBE9093600083CF6C960FB6A8
:102C5000F894DEBF0FBECDBFDF91CF91FF91EF9112
:102C6000BF91AF919F918F917F916F915F914F91A4
:102C70003F912F911F910F91FF90EF90DF90CF9098
:102C80000F900FBE0F901F901895CF93DF9300D039
:102C900000D0CDB7DEB7789484B5826084BD84B5AA
:102CA000816084BD85B5826085BD85B5816085BD47
:102CB00080916E00816080936E00109281008091FF
:102CC0008100826080938100809181008160809387
:102CD00081008091800081608093800080919100CC
:102CE0008260809391008091910081608093910037
:102CF000809190008160809390008091C1008460F9
:102D00008093C1008091C10082608093C100809156
:102D1000C10081608093C1008091C3008160809375
:102D2000C3008091C00082608093C0008091C20087
:102D300081608093C20080917A00846080937A00E1
:102D400080917A00826080937A0080917A0081601D
:102D500080937A0080917A00806880937A00109244
:102D6000D601109277061092D4018091D70081602D
:102D70008093D70080EA8093D80089B5806189BDAF
:102D800089B5826089BD09B400FEFDCF61E070E0C5
:102D900080E090E00E94080A8091D8008F7C8061DA
:102DA0008093D8008091E000807F8093E000809144
:102DB000E1008E7E8093E1008DE08093E200559AE1
:102DC000209AEEEFFFE7859194918B3F9C4D19F48B
:102DD00081E08093760681EC80937C0085B1806FE2
:102DE00085B9249884B1866E84B95E9A5F988AB159
:102DF000806D8AB9769A6E9881B3806F81BB89980D
:102E000080B38D7080BB80E58CBD81E08DBD85E099
:102E100090E00E948E0A5F9A85E090E00E948E0A00
:102E20005E985C9868EAE62E61E0F62E1DE01E0DC5
:102E3000F70184910E94BB0AFFEFEF1AFF0A1E11EF
:102E4000F7CF5C9A81E88093640081E0809365000D
:102E500000E014E080E00E94BB0A01501109D1F7A4
:102E60000E94930A87FF1FC05C9885EA0E94BB0AF4
:102E70005C9A2E982F982D988091640080628093A0
:102E800064000E94B00AFDCF2D980E94930A8478B6
:102E9000843871F00E94930A8471843131F188EC96
:102EA00090E00E948E0A0E94930A82FDEDCF3AC004
:102EB0000E948C0A88EC90E00E948E0A2F9882E093
:102EC00090E00E94A11F8F3F29F06FEF82E090E019
:102ED0000E94A91F84EF91E00E948E0A2F9A0E94FF
:102EE000930A84788438D9F3D5CF0E948C0A88EC71
:102EF00090E00E948E0A2E9882E090E00E94A11F2E
:102F0000882329F060E082E090E00E94A91F84EF0E
:102F100091E00E948E0A2E9A0E94930A8471843155
:102F2000D9F3BDCF0E948C0A82E090E00E94A11FDD
:102F3000882319F00E94C60A02C00E94C10A2E9876
:102F40005EEEE52EFF24FA940E94930A86FF04C0E9
:102F50002E9A2F9A2D9A3FC02CEFE2162FEFF206F1
:102F600019F42E9A2F9806C038E1E316F10411F4F3
:102F70002F9A2D980E94DE1000E128E548EF50E0DE
:102F8000B70184E190E00E94810F0E94EB108BE179
:102F900090E00E948E0A40EFE4164FEFF40621F411
:102FA0008AEF90E00E948E0A5FEFE51AF50A89E148
:102FB000E816F10449F68CEB92E00E948E0A0E941A
:102FC0008C0AE0910006F09101060190F081E02D5D
:102FD00080E096E0099582E390E00E948E0A0E94CC
:102FE000930A8111F8CF81E28093070680916400F3
:102FF0008E7F8093640080917A00806480937A0051
:1030000080917A0086FDFCCF0091780010917900C4
:103010000E94E30920E030E0980111270027600FAB
:10302000711F821F931F611571058105910511F0B4
:103030000E94981F809164008160809364000E94C8
:10304000DE101092150610921406109213061092BC
:1030500012060E94620E8091AB01811102C00E9493
:10306000030D2FB7F89480918E0190918F01A0915C
:103070009001B09191012FBF40910C0650910D0627
:1030800060910E0670910F0620911006222341F0E8
:1030900020910806821B8093110610921006BCC571
:1030A00084179507A607B70738F4481B423008F481
:1030B000B3C50E94B00AB0C521E0209310068093EA
:1030C000080690930906A0930A06B0930B06209178
:1030D0000706820F911DA11DB11D80930C069093D0
:1030E0000D06A0930E06B0930F06809103069091F3
:1030F00004060196909304068093030680910506CA
:10310000809306060E94930A809305060E94DE10B3
:1031100010921506109214061092130610921206C1
:103120008091340181112DC584E00E948010882394
:10313000E9F08091A801882319F00E94C10A02C019
:103140000E94C60A62E370E088EE93E00E94E70CFA
:103150006091A80182E090E069830E94A11F6981CB
:10316000681721F082E090E00E94A91F1091AB0146
:103170001123E9F06091A901E62FE695E695E69521
:10318000F0E0862F90E0E956FE4F218130E0AC015F
:10319000485F5F4F6770461B5109608170E0887F10
:1031A00099270E94A00D9093BD018093BC0180914E
:1031B000B801882371F1C090B401D090B501E090BE
:1031C000B601F090B70120E030E040E053E4C701E1
:1031D000B6010E94C322181644F020E030E0A90195
:1031E000C701B6010E94F92087FD1092B80120E0C6
:1031F00030E040E852E46091B0017091B1018091FB
:10320000B2019091B3010E94C322181614F41092D7
:10321000B8018091B801882399F1112389F1E090D8
:10322000A901F12C0091AA016091B4017091B5013E
:103230008091B6019091B7010E947521AB01609118
:10324000B0017091B1018091B2019091B3019701E9
:1032500025503109421753079CF0265F3F4F421714
:10326000530774F410E00E947521C8010597681790
:10327000790734F00B5F1F4F601771070CF4D4C44B
:103280003090BE01E32DE695E695E695F0E0E9562F
:10329000FE4FA180B12C832D90E0E080F12CAC0199
:1032A000485F5F4F232D2770421B51099501B701DD
:1032B000887F99270E94A00D9093C4018093C30139
:1032C000232D287F022F10E0B5016E197F09072EEC
:1032D000000C880B990B2C830E94AD214B015C01E3
:1032E0002C81285F622F70E0601B710B072E000C91
:1032F000880B990B0E94AD219B01AC01C501B40163
:103300000E9403214B015C01632D70E080E090E09E
:103310000E94AB219B01AC01C501B4010E94D022E7
:103320002B013C01B701FF0C880B990B0E94AD21CA
:103330006B017C01B801110F880B990B0E94AD2124
:10334000A50194010E94D0229B01AC01C701B601E6
:103350000E941A209B01AC01C301B2010E941B20F4
:1033600020E030E040E450E40E941A206093BF0166
:103370007093C0018093C1019093C2018091B80104
:10338000882309F44EC0C090B401D090B501E090FC
:10339000B601F090B7010091AE011091AF016091BC
:1033A00008017091090180910A0190910B010E941E
:1033B0007521DC01CB01B8010E942A0E9B01AC01F2
:1033C000C701B6010E941B206093B4017093B50140
:1033D0008093B6019093B701C090B001D090B10135
:1033E000E090B201F090B301609104017091050189
:1033F00080910601909107010E947521DC01CB01AB
:10340000B8010E94F10D9B01AC01C701B6010E94F9
:103410001B206093B0017093B1018093B20190932F
:10342000B3012DEC3CEC4CE45DE36091080170913C
:10343000090180910A0190910B010E941A204B0111
:103440005C01609308017093090180930A019093D5
:103450000B012DEC3CEC4CE45EE3609104017091B7
:10346000050180910601909107010E941A202DEC20
:103470003CEC4CE45DE30E941A206B017C016093FC
:10348000040170930501809306019093070120E0E9
:1034900030E0A901C501B4010E94F92087FF08C0EE
:1034A000109208011092090110920A0110920B016A
:1034B00020E030E0A901609108017091090180913C
:1034C0000A0190910B010E94F92018165CF020E08F
:1034D00030E0A901C701B6010E94F920181614F0C6
:1034E0001092B8010E94930A87FF03C03394309270
:1034F000BE010E94930A84FF05C08091BE018150E5
:103500008093BE018091BE01883018F488E08093DA
:10351000BE018091BE0187FF17C01092BE010E94BC
:10352000620E1092B8011092AB010E94030D88EC5C
:10353000809303011092020180910306909104068A
:103540009093AD018093AC012091BE018091A901BF
:1035500090E0821B91090A973CF48091AB0188238B
:1035600019F021502093BE010E94930A86FF09C0E2
:103570008091000190910101019790930101809346
:1035800000010E94930A85FF09C08091000190917B
:103590000101019690930101809300018091000147
:1035A00090910101853B910534F084EB90E090937C
:1035B000010180930001809100019091010197FF2A
:1035C00004C0109201011092000188E00E94801056
:1035D000882309F46AC08091B801811166C06BE448
:1035E00070E08EEE92E00E94E70C81E08093B801DB
:1035F0000091C3011091C4018091000190910101DB
:10360000080F191F1093AF010093AE01B8018AE0B3
:1036100090E00E942A0E9B01AC016091BE0170E017
:1036200080E090E02C8339834A835B830E94AD2144
:103630002C8139814A815B810E941B206093B401F7
:103640007093B5018093B6019093B701C090BF010C
:10365000D090C001E090C101F090C201B8018AE0B1
:1036600090E00E94F10D9B01AC01C701B6010E94E0
:103670001B206093B0017093B1018093B2019093CD
:10368000B30120E030E040EA50E420930801309399
:10369000090140930A0150930B01209304013093D8
:1036A0000501409306015093070128E9E22E21E02D
:1036B000F22E07E911E080E090E0D7012D917D0125
:1036C0006C01B8E0CB0ED11CF80161918F0130E0A4
:1036D00070E0A6010E94FD10C6018038910569F7CF
:1036E0008091B801882309F469C0C090B001D090DE
:1036F000B101E090B201F090B3016091B40170911A
:10370000B5018091B6019091B7010E947C21062FEE
:1037100010E0A12CB12C09511E4FB5010B2C000C4F
:10372000880B990B0E94AD21A70196010E94F920F8
:1037300087FF44C04A2D47708A2D869586958695C9
:10374000F80120E8829FE00DF11D1124208130E076
:1037500081E090E0042E02C0880F991F0A94E2F7DE
:103760008223932302C0959587954A95E2F70197A6
:1037700021F03FEFA31AB30AD0CF1092B8016DE742
:1037800070E082E390E00E94E70C20E030E040E04F
:103790005EE36091B4017091B5018091B6019091A2
:1037A000B7010E94D0220E947521FB01E956FE4F0D
:1037B00080818C5F803408F08FE3808380910201E8
:1037C000811193C08091030680FD0CC0809103019C
:1037D00090E000E120E145E352E06AE070E0089704
:1037E0000E94810FC0900301D12C8601085011095D
:1037F00096E0E92EF12C21E0A701B80180E096E0E7
:103800000E94CC0A4FEFE41AF40A50E4E516F104E2
:1038100091F78601085F1F4F86E0E82EF12C21E02A
:10382000A701B80180E096E00E94CC0A8FEFE81A69
:10383000F80A90E4E916F10491F78091030690915B
:1038400004062091AC013091AD01DC01A21BB30B49
:10385000DD9708F44AC021E0209302019093AD0166
:103860008093AC018091BE0190E09601295F3F4FAB
:1038700028173907D4F1B7E0CB1AD1088C159D056C
:10388000A4F1809171008D7F809371001092960158
:10389000E7EDF1E0F0939501E0939401F09393014B
:1038A000E09392018CE291E09093D8018093D7014C
:1038B00086E990E09093DA018093D9019093DC013E
:1038C0008093DB019093DE018093DD0122E330E001
:1038D0003093E0012093DF019093E2018093E101B6
:1038E0000E94D90B82E080933401809102018823E9
:1038F00009F475C062E470E086E490E00E94E70C91
:10390000E0900301F12CF8E0EF1AF1086091030652
:10391000709104067195619571096F73772700E4C2
:1039200020E145EB51E0C7010E94810F6091030641
:1039300070910406719561957109606C7F6F20E14B
:1039400045EB51E0C7010E94810F809103069091E1
:1039500004062091AC013091AD01821B930B4F976F
:1039600008F43DC0C090BE01D12C9601205F3F4FAE
:10397000C901330FAA0BBB0B20E1C21AD1080D2CD1
:10398000000CEE08FF08C816D906EA06FB06DCF4B0
:103990009C01AD012C193D094E095F0969F02C838A
:1039A00039834A835B830E94931F2C8139814A812A
:1039B0005B810E94B71F03C060E070E0CB01C60EC0
:1039C000D71EE81EF91EC0920301109202018091D9
:1039D0000306909104069093AD018093AC01609032
:1039E000C3017090C4018090BF019090C001A0906D
:1039F000C101B090C201C501B4010E9475216B01E3
:103A00007C012090BE01312C830120E231E04AE2AA
:103A100051E0C1010E9482118091AB01882381F0A5
:103A20000091BC011091BD016091AA0170E08091EC
:103A3000A9012CE031E046E151E090E00E948211C2
:103A40008091000190910101680E791EB3018AE016
:103A500090E00E94F10D9B01AC01B3018AE090E07F
:103A60002C8339834A835B830E942A0E2B013C01FD
:103A70002C8139814A815B81C501B4010E941B20E0
:103A80000E9475214B015C01B101032C000C880BD5
:103A9000990B0E94AD21A30192010E941B200E945C
:103AA00075219401AB01B601C1010E94FD10809106
:103AB000B8018823E1F06091B0017091B10180916B
:103AC000B2019091B3010E9475216B017C0160915C
:103AD000B4017091B5018091B6019091B7010E9437
:103AE000752121E0A60180E096E00E94CC0A00E06A
:103AF00010E0E12CF12C20E0A701B80180E096E075
:103B00000E94CC0A3FEFE31AF30A45E0E416F10401
:103B100091F70F5F1F4F0038110559F71092F50507
:103B20001092F4051092F3051092F2051092F70529
:103B30001092F6058FE791E00E948B106091B90119
:103B400070E080E090E04AE00E949D1080E390E009
:103B50009093F5058093F4059093F3058093F20517
:103B60001092F7051092F60585E891E00E948B10FF
:103B70006091BA017091BB0180E090E04AE00E9440
:103B80009D1080913401813081F400E420E845E506
:103B900056E060E070E080E090E00E94810F88E0F5
:103BA0000E94801081111092340180913401823082
:103BB00089F500E420E845E552E060E070E080E04F
:103BC00090E00E94810FACE3B0E0B093F505A093C4
:103BD000F405B093F305A093F205E2E1F0E0F09371
:103BE000F705E093F6056091BA017091BB0180E0A2
:103BF00090E04AE00E949D1088E00E948010882397
:103C000049F081E0809334011092BB011092BA0117
:103C10001092B9010E94EB1080E090E0892B09F42A
:103C200020CA0E9400001DCA8091BE01E81AF10856
:103C3000F7FE03C0F194E194F108E092B90180919C
:103C4000BA019091BB018E0D9F1D9093BB01809393
:103C5000BA011092B8011092AB01809171008D7F72
:103C6000809371001092960127ED31E03093950119
:103C700020939401309393012093920182E390E08A
:103C80009093D8018093D70184E690E09093DA0175
:103C90008093D90128E230E03093DC012093DB01EE
:103CA0009093DE018093DD0180E090E89093E00145
:103CB0008093DF010E94D90BE3CA0F931F93CF9328
:103CC000DF938C0181E090E00E94A11F80FF31C052
:103CD0008AE090E00E94A11F9FEF980F9E3F48F559
:103CE00022E330E0D80157963C932E93569728E371
:103CF00030E059963C932E935897CBE0D0E0D80112
:103D0000ED91FC910190F081E02D682FC80109959B
:103D1000CE010E94A11F2196C131D10581F70E94D9
:103D2000EB1088EE93E0DF91CF911F910F910C94EF
:103D30008E0ADF91CF911F910F91089504970C94F3
:103D40005D1EE6E2F6E01382128288EE93E0A0E0C8
:103D5000B0E084839583A683B7838AE491E091835E
:103D600080838FEF9FEF95878487ECEFF5E01382D8
:103D700012821186128620E1238790878783108A1A
:103D8000118A128A138A148A88E691E091838083CB
:103D900086E791E095838483178A168A118E108EA8
:103DA00081E0828F138E848F158E2FE938E0309357
:103DB000E6012093E50120E030E83093E401209310
:103DC000E30146983E9A47983F9AE7EEF5E0138262
:103DD00012822CE531E03183208327EE31E03683F7
:103DE000258320E830E03087278320E430E03287E5
:103DF000218795E0948B838B16861586108A17860B
:103E00001486138681E090E0928B818B1482089552
:103E1000CF92DF92EF92FF920F931F93CF93DF9396
:103E20001F92CDB7DEB7182F062FE42E862F880FEE
:103E30008E5F99830E94CD1283E00E94CD12F12EF5
:103E4000C12E9981D92E8C2D8F19801798F4F601E7
:103E5000E7FE02C0849101C080810E94CD12182F1C
:103E600080E00E94CD128123FFEFCF1ADF0A81117B
:103E7000EACF01C081E00F90DF91CF911F910F91A8
:103E8000FF90EF90DF90CF9008958F929F92AF9226
:103E9000BF92CF92DF92EF92FF92CF93DF93EC012C
:103EA000688179818A819B81611571058105910500
:103EB00021F464E279ED8BE597E02DE133EF41E009
:103EC00050E00E94B71F49015A019B01AC01A7EACB
:103ED000B1E40E94D61F6B017C01ACEEB4EFA501EA
:103EE00094010E94E41FDC01CB018C0D9D1DAE1DD1
:103EF000BF1DB7FF03C00197A109B048888399830C
:103F0000AA83BB83BC01CD019F77DF91CF91FF9046
:103F1000EF90DF90CF90BF90AF909F908F900895DB
:103F20000E94451F089582E491E00E94451F089574
:103F30006093420170934301809344019093450143
:103F40000895F999FECF92BD81BDF89A992780B561
:103F50000895262FF999FECF1FBA92BD81BD20BDCD
:103F60000FB6F894FA9AF99A0FBE01960895052EA5
:103F700097FB1EF400940E94CE1F57FD07D00E94AD
:103F8000E91F07FC03D04EF40C94CE1F50954095CA
:103F9000309521953F4F4F4F5F4F089590958095F5
:103FA000709561957F4F8F4F9F4F08950E940B2012
:103FB000A59F900DB49F900DA49F800D911D11247D
:103FC0000895B7FF0C94D61F0E94D61F821B930B37
:103FD0000895A1E21A2EAA1BBB1BFD010DC0AA1F4A
:103FE000BB1FEE1FFF1FA217B307E407F50720F062
:103FF000A21BB30BE40BF50B661F771F881F991FDD
:104000001A9469F760957095809590959B01AC0125
:10401000BD01CF010895A29FB001B39FC001A39F2E
:10402000700D811D1124911DB29F700D811D1124F1
:10403000911D08955058BB27AA270E9432200C9446
:1040400075220E943C2238F00E94432220F039F46D
:104050009F3F19F426F40C9412220EF4E095E7FB2E
:104060000C940C22E92F0E949A2258F3BA17620787
:1040700073078407950720F079F4A6F50C94BC2209
:104080000EF4E0950B2EBA2FA02D0B01B901900173
:104090000C01CA01A0011124FF27591B99F0593FB7
:1040A00050F4503E68F11A16F040A22F232F342FFF
:1040B0004427585FF3CF469537952795A795F0404D
:1040C0005395C9F77EF41F16BA0B620B730B840B62
:1040D000BAF09150A1F0FF0FBB1F661F771F881F1A
:1040E000C2F70EC0BA0F621F731F841F48F4879572
:1040F00077956795B795F7959E3F08F0B0CF939564
:10410000880F08F09927EE0F9795879508950E94DC
:104110003C2260F080E891E009F49EEF0E94432287
:1041200028F040E851E071F45EEF0CC00C941222CC
:104130000C94BC22E92FE0780E949A2240F3092EC9
:10414000052AB1F3261737074807590738F00E2E0E
:1041500007F8E02569F0E025E0640AC0EF6307F89E
:10416000009407FADB01B9019D01DC01CA01AD0130
:10417000EF930E941A210E9475220E94CA205F912B
:10418000552339F02BED3FE049E450FD49EC0C9408
:104190001B200895DF93DD27B92FBF7740E85FE349
:1041A0001616170648075B0718F4D92F0E94C82275
:1041B0009F938F937F936F930E948B23ECEAF0E0A1
:1041C0000E9415220E9475222F913F914F915F917D
:1041D0000E94E322DD2351F09058A2EA2AED3FE04D
:1041E00049EC5FE3D0785D270E943220DF910C9488
:1041F00075220E94E82108F481E008950E944C2273
:10420000E3950C9486220E9417210C9475220E943B
:10421000432258F00E943C2240F029F45F3F29F0ED
:104220000C940C2251110C94BD220C9412220E9469
:104230009A2268F39923B1F3552391F3951B550BFB
:10424000BB27AA2762177307840738F09F5F5F4F69
:10425000220F331F441FAA1FA9F335D00E2E3AF0A8
:10426000E0E832D091505040E695001CCAF72BD0C0
:10427000FE2F29D0660F771F881FBB1F2617370711
:104280004807AB07B0E809F0BB0B802DBF01FF2743
:1042900093585F4F3AF09E3F510578F00C940C22F2
:1042A0000C94BD225F3FE4F3983ED4F38695779556
:1042B0006795B795F7959F5FC9F7880F911D9695FC
:1042C000879597F90895E1E0660F771F881FBB1F58
:1042D000621773078407BA0720F0621B730B840B05
:1042E000BA0BEE1F88F7E09508950E947C21689430
:1042F000B1110C94BD2208950E94A22288F09F570C
:1043000098F0B92F9927B751B0F0E1F0660F771FF9
:10431000881F991F1AF0BA95C9F714C0B13091F0EF
:104320000E94BC22B1E008950C94BC22672F782F24
:104330008827B85F39F0B93FCCF3869577956795B4
:10434000B395D9F73EF490958095709561957F4F20
:104350008F4F9F4F0895E89409C097FB3EF49095C6
:104360008095709561957F4F8F4F9F4F9923A9F04E
:10437000F92F96E9BB279395F695879577956795DD
:10438000B795F111F8CFFAF4BB0F11F460FF1BC021
:104390006F5F7F4F8F4F9F4F16C0882311F096E9B4
:1043A00011C0772321F09EE8872F762F05C0662362
:1043B00071F096E8862F70E060E02AF09A95660F1B
:1043C000771F881FDAF7880F9695879597F90895D4
:1043D000990F0008550FAA0BE0E8FEEF1616170616
:1043E000E807F907C0F012161306E407F50798F07E
:1043F000621B730B840B950B39F40A2661F0232B97
:10440000242B252B21F408950A2609F4A140A69512
:104410008FEF811D811D089597F99F6780E870E0F7
:1044200060E008959FEF80EC0895DF93CF931F9392
:104430000F93FF92EF92DF927B018C01689406C08C
:10444000DA2EEF010E94E322FE01E894A591259166
:10445000359145915591A6F3EF010E943220FE015E
:104460009701A801DA9469F7DF90EF90FF900F9120
:104470001F91CF91DF91089500240A941616170614
:1044800018060906089500240A9412161306140645
:10449000050608950C9412220E94A222D8F3E894F3
:1044A000E0E0BB279F57F0F02AED3FE049EC06C063
:1044B000EE0FBB0F661F771F881F28F0B23A620706
:1044C0007307840728F0B25A620B730B840BE395D1
:1044D0009A9572F7803830F49A95BB0F661F771F54
:1044E000881FD2F790480C949123092E0394000C56
:1044F00011F4882352F0BB0F40F4BF2B11F460FF7E
:1045000004C06F5F7F4F8F4F9F4F0895EF93E0FF81
:1045100007C0A2EA2AED3FE049EC5FEB0E9432209F
:104520000E9475220F90039401FC9058E9EDF0E091
:104530000C94A42357FD9058440F551F59F05F3F2A
:1045400071F04795880F97FB991F61F09F3F79F0B5
:1045500087950895121613061406551FF2CF469537
:10456000F1DF08C0161617061806991FF1CF8695B9
:104570007105610508940895E894BB27662777279D
:10458000CB0197F908950E94E82108F48FEF089570
:104590009B01AC0160E070E080E89FE30C94032194
:1045A0000E94E3220C9475220E943C2238F00E9463
:1045B000432220F0952311F00C940C220C9412222B
:1045C00011240C94BD220E949A2270F3959FC1F38E
:1045D000950F50E0551F629FF001729FBB27F00DB1
:1045E000B11D639FAA27F00DB11DAA1F649F662706
:1045F000B00DA11D661F829F2227B00DA11D621F55
:10460000739FB00DA11D621F839FA00D611D221F0E
:10461000749F3327A00D611D231F849F600D211DF2
:10462000822F762F6A2F11249F5750409AF0F1F075
:1046300088234AF0EE0FFF1FBB1F661F771F881FDE
:1046400091505040A9F79E3F510580F00C940C22E8
:104650000C94BD225F3FE4F3983ED4F386957795A2
:104660006795B795F795E7959F5FC1F7FE2B880F84
:10467000911D9695879597F908959F930E944C22D6
:104680000F9007FCEE5F0C94862219F416F40C943C
:1046900012220C948F230E94A222B8F39923C9F30B
:1046A000B6F39F57550B87FF0E949D230024A0E679
:1046B00040EA900180585695979528F4805C660FE3
:1046C000771F881F20F026173707480730F4621B32
:1046D000730B840B202931294A2BA6951794079434
:1046E000202531254A2758F7660F771F881F20F0AD
:1046F00026173707480730F4620B730B840B200D25
:10470000311D411DA09581F7B901842F9158880F63
:104710009695879508959B01AC010C94D0229F3FFC
:1047200031F0915020F4879577956795B795880F6C
:10473000911D9695879597F9089591505040660F71
:10474000771F881FD2F708959F938F937F936F935E
:10475000FF93EF939B01AC010E94D022EF91FF9158
:104760000E9415222F913F914F915F910C94D0227E
:1047700097FB072E16F4009407D077FD09D00E940E
:10478000CC2307FC05D03EF4909581959F4F08956A
:10479000709561957F4F0895AA1BBB1B51E107C01F
:1047A000AA1FBB1FA617B70710F0A61BB70B881FC1
:1047B000991F5A95A9F780959095BC01CD01089550
:1047C000EE0FFF1F0590F491E02D099481E090E039
:0A47D000F8940C94EB23F894FFCF4B
:1047DA005A0001C80000004000004040FCFFFCFFF6
:1047EA0004000400FCFFFCFF04000400FCFFFCFFC3
:1047FA00FCFFFCFF04000400FCFFF8FF08000800AF
:10480A00F8FFF8FF014000E1000000000000FFFF90
:10481A00FFFF0100000000000000A90EFC0ECA0EF6
:10482A00BF0EB3122F134D1300000000360974088F
:10483A00DE09DD0900000000EA0A7408DE09DD0964
:10484A005D1EFCFF00009E1E00C180810000004C1E
:0E485A004153543A00504F494E54533A000017
:2070000055C000006EC000006CC000006AC0000068C0000066C0000064C0000062C0000043
:2070200060C000005EC00000F2C400005AC0000058C0000056C0000054C0000052C00000EE
:2070400050C0000078C000004CC000004AC0000048C0000046C0000044C0000042C00000BE
:2070600040C000003EC000003CC000003AC0000038C0000036C0000034C0000032C0000048
:2070800030C000002EC000002CC000002AC0000028C0000026C0000024C0000022C00000A8
:2070A00020C000001EC000001CC0000011241FBECFEFDAE0DEBFCDBF11E0A0E0B1E0E2E3BC
:2070C000FFE702C005900D92A83AB107D9F711E0A8EAB1E001C01D92AE3BB107E1F78FD30B
:2070E00026C78ECFF89410926F0010928100109285001092840081E085BF15BE47985D9AEB
:20710000289A0C94000008952091B2013091B3012F5F3F4F3093B3012093B201932F37FFA6
:2071200003C08EEF831B982F990F921710F447980895479A08951F920F920FB60F9211246E
:207140002F938F939F93EF93FF9310928500109284008091A8019091A901009741F00197D3
:207160009093A9018093A801892B09F45D9A8091AA019091AB01009741F001979093AB0126
:207180008093AA01892B09F4289AE0E0F0E0859194918F5F9F4F49F08091AC019091AD0151
:2071A00001969093AD018093AC01FF91EF919F918F912F910F900FBE0F901F90189584E0BC
:2071C0008093E9000DC08091E8008B778093E80003C08EB3882351F08091E80082FFF9CFBE
:2071E0008091E80085FFEFCF8091F1000895982F83E08093E9008091E80085FD0DC0809136
:20720000E8008E778093E80003C08EB3882369F08091E80080FFF9CF9093F1005D9884E6CB
:2072200090E09093A9018093A80108954F925F926F927F928F929F92AF92BF92CF92DF921E
:20724000EF92FF920F931F93CF93DF9384E08093E9008091E80082FF57C2289884E690E067
:207260009093AB018093AA01AADF182F853481F48CE49DE19093AD018093AC0107B600FC4B
:20728000FDCFF999FECF81E180935700E89503C0843519F494DF8DE00DC28C34E1F38035F9
:2072A000D1F3843721F484E4A2DF80E003C2813611F489E5FFC18134B1F481DF182F7FDFE3
:2072C00090E0880F991FAA2797FDA095BA2F312F330F20E0442737FD4095542F822B932B68
:2072E000A42BB52BB8C1803711F483E5E3C1833549F4C0E0D1E089917ADF21E0C730D20714
:20730000D1F7D9C1863521F481E371DF80E3D2C1833731F487E86BDF85E969DF8EE1CAC149
:207320008536B9F4E0E0F0E093E085E090935700E89507B600FCFDCF80935700E89507B65D
:2073400000FCFDCFE058FF4FA0E7E030FA0771F7A2CF823739F4E1E0F0E089E08093570024
:207360008491A8C1863439F4E0E0F0E089E08093570084919FC18E3439F4E3E0F0E089E0E5
:2073800080935700849196C1813539F4E2E0F0E089E08093570084918DC1823631F489E521
:2073A00026DF80E024DF80E885C1823419F0873609F0E5C01092AD011092AC0100DF082FE8
:2073C000FEDEF82EFCDE682E8554823008F071C1902F80E0CF2DD0E0C82BD92B10926F00B3
:2073E000173609F04BC081E180935700E895DD24CC24C3943FC0E090AE01F090AF010091CC
:20740000B0011091B101B6E46B16D9F4ED2DF0E0EE29FF29E4918E2FEADEDD2081F082E08D
:2074200090E0A0E0B0E0E80EF91E0A1F1B1FE092AE01F092AF010093B0011093B101DC2470
:2074400018C0D801C701B695A7959795879559D5CEDE82E090E0A0E0B0E0E80EF91E0A1FF2
:207460001B1FE092AE01F092AF010093B0011093B1012197209709F0BECF7DC08090AE01F5
:207480009090AF01A090B001B090B10196E4691609F05DC083E0F40180935700E89507B63E
:2074A00000FCFDCF54C0F6E46F1661F5772031F1E090AE01F090AF010091B0011091B1019E
:2074C0007EDED82ECC24852D90E08C299D29F7010C0140925700E895112482E090E0A0E08B
:2074E000B0E0E80EF91E0A1F1B1FE092AE01F092AF010093B0011093B10102C060DE582E1A
:20750000742423C0E090AE01F090AF010091B0011091B10116950795F794E79450DE682FFA
:20752000C701F7D48091AE019091AF01A091B001B091B1010296A11DB11D8093AE01909349
:20754000AF01A093B001B093B101219704C05524772444244394209709F0A5CF96E46916B6
:2075600041F485E0F40180935700E89507B600FCFDCF8DE03CDE82E080936F009CC0833492
:2075800071F40091AE011091AF0119DE90E021E0F8010C0120935700E89511247CCE8336C8
:2075A00019F5E090AE01F090AF010091B0011091B10105DEF701E16090E021E00C0120938C
:2075C0005700E895112482E090E0A0E0B0E0E80EF91E0A1F1B1FE092AE01F092AF0100936A
:2075E000B0011093B10157CE8D3661F4E091AE01F091AF0185E080935700E89507B600FCF2
:20760000FDCF49CE823551F4E091AE01F091AF0105911491812FEBDD802F4CC0843421F5FE
:20762000E090AE01F090AF010091B0011091B10116950795F794E794C2DD682FC70169D4DE
:207640008091AE019091AF01A091B001B091B1010296A11DB11D8093AE019093AF01A093D8
:20766000B001B093B10117CE843609F5E090AE01F090AF010091B0011091B101D801C70142
:20768000B695A795979587953CD4B1DD82E090E0A0E0B0E0E80EF91E0A1F1B1FE092AE010A
:2076A000F092AF010093B0011093B10104C08B3111F08FE39CDD83E08093E9009091E8002B
:2076C0008091E8008E778093E80095FF04C010C08EB38823C9F08091E80080FFF9CF809193
:2076E000E8008E778093E80003C08EB3882361F08091E80080FFF9CF84E08093E9008091F1
:20770000E8008B778093E800DF91CF911F910F91FF90EF90DF90CF90BF90AF909F908F90AC
:207720007F906F905F904F9008959091B601892F8F77813249F58091B7018032A1F081328A
:2077400019F5913A09F58091E800877F8093E8008DE091E067E070E00BD28091E8008B770B
:207760008093E8000895913279F48091E800877F8093E8008DE091E067E070E05DD2809192
:20778000E8008E778093E800089582E061EC42E0B5D083E061E842E1B1D084E060E842E1EF
:2077A000ADC084B7877F84BF88E10FB6F89480936000109260000FBE20E880E090E00FB63F
:2077C000F89420936100809361000FBE81E085BF92E095BF3F9A209A559AE1E6F0E02083A1
:2077E000108247985D9A289A109289008AEF8093880090936F0083E080938100F0C0409116
:20780000000850910108109201081092000894B714BE88E10FB6F8948093600010926000D5
:207820000FBE292F30E0F901E270F07091FD18C090FF05C0859194918F5F9F4F81F423FFFF
:207840000FC08091090190910A014817590741F0E0E0F0E0859194918F5F9F4F09F042DC64
:20786000A0DF78941092AD011092AC010CC0DEDC36D38091AC019091AD0181549F4110F00D
:207880001092140141DC80911401882381F78091E00081608093E00025DC80E090E0089598
:2078A000FA01923049F0933061F09130F9F485E191E022E130E01EC087E291E02EE330E04D
:2078C00019C0882329F485E691E024E030E012C0813029F489E691E022E230E00BC0823006
:2078E00029F48DE891E028E130E004C080E090E020E030E091838083C90108958093E9004E
:207900008091EB0081608093EB001092ED006093EC004093ED008091EE00881F8827881F62
:2079200008958091B60188238CF403C08EB38823B1F08091E80082FFF9CF8091E8008B772A
:207940008093E80008958EB3882349F08091E80080FFF9CF8091E8008E778093E800089594
:20796000EF92FF920F931F9345D04CD008ED10E0F80180818F77808380818068808380819B
:207980008F7D808319BC1EBA1092B40180EEE82EF12CF70180818B7F8083F8018081816052
:2079A000808380E060E042E0A9DFE1EEF0E080818E7F8083E2EEF0E0808181608083808144
:2079C00088608083F70180818E7F8083F8018081806180831F910F91FF90EF900895E7ED06
:2079E000F0E08081816080838AE482BF81E08093B501B6CFE8EDF0E080818E7F808310921C
:207A0000E20008951092DA001092E10008951F920F920FB60F9211242F933F934F935F93F6
:207A20006F937F938F939F93AF93BF93EF93FF938091DA0080FF1BC08091D80080FF17C0B2
:207A40008091DA008E7F8093DA008091D90080FF0BC080E189BD82E189BD09B400FEFDCF36
:207A600081E08EBB3BD203C019BC1EBA37D28091E10080FF17C08091E20080FF13C0809138
:207A8000E2008E7F8093E2008091E20080618093E2008091D80080628093D80019BC85E049
:207AA0008EBB1CD28091E10084FF2CC08091E20084FF28C080E189BD82E189BD09B400FEC5
:207AC000FDCF8091D8008F7D8093D8008091E1008F7E8093E1008091E2008F7E8093E20012
:207AE0008091E20081608093E2008091B401882331F48091E30087FD02C081E001C084E067
:207B00008EBBECD18091E10083FF21C08091E20083FF1DC08091E100877F8093E10082E06A
:207B20008EBB1092B4018091E1008E7F8093E1008091E2008E7F8093E2008091E2008061E9
:207B40008093E20080E060E042E0D8DEC7D1FF91EF91BF91AF919F918F917F916F915F9130
:207B60004F913F912F910F900FBE0F901F9018959C014091BC015091BD014617570718F49D
:207B8000F90190E044C06115710511F0AB01F8CF8091E8008E778093E80040E050E0F0CF0F
:207BA0008EB3882309F444C0853009F443C08091E80083FF02C081E008958091E80082FD70
:207BC00031C08091E80080FF22C08091F3009091F200782F60E0292F30E0262B372B07C07A
:207BE00081918093F100415050402F5F3F4F4115510519F02830310598F390E02830310566
:207C000009F491E08091E8008E778093E8004115510531F6992321F605C08EB3882341F075
:207C2000853041F08091E80082FFF7CF80E0089582E0089583E008959C016115710529F47C
:207C40008091E8008B778093E800F90126C08EB3882391F1853091F18091E80083FF02C06C
:207C600081E008958091E80082FFF1CF06C08091F10081936150704059F02091F300809191
:207C8000F200322F20E090E0822B932B892B79F78091E8008B778093E80061157105B9F601
:207CA00005C08EB3882341F0853041F08091E80080FFF7CF80E0089582E0089583E00895C2
:207CC0000F931F93DF93CF9300D0CDB7DEB7E6EBF1E08091F100819381E0EE3BF807C9F792
:207CE00024DD8091E80083FFE4C08091B6019091B701953009F46DC0963040F4913081F1A7
:207D0000913070F0933009F0D4C02AC0983009F4A3C0993009F4B2C0963009F0CAC07CC023
:207D2000803809F4C6C0823809F0C3C08091BA0187708093E9008091EB001092E9002091DB
:207D4000E800277F2093E80090E025E0969587952A95E1F781708093F1001092F10087C0D8
:207D6000882319F0823009F0A4C08F71823009F0A0C08091B801882331F52091BA01277097
:207D800009F497C02093E9008091EB0080FF1BC0933021F48091EB00806213C08091EB0018
:207DA00080618093EB0081E090E002C0880F991F2A95E2F78093EA001092EA008091EB00E5
:207DC00088608093EB001092E9008091E800877F51C0882309F06DC01091B8011F770FB79B
:207DE000F8948091E800877F8093E8009ADD8091E80080FFFCCF8091E3008078812B809398
:207E0000E30080688093E300112311F482E001C083E08EBB0FBF4DC08058823008F049C033
:207E20008091B8019091B9016091BA01AE014F5F5F4F36DDBC01009709F43BC08091E8008E
:207E4000877F8093E80089819A8192DE8091E8008B778093E8002DC0803859F58091E800AA
:207E6000877F8093E8008091B4018093F1008091E8008E778093E80054DD1BC08823C9F4CA
:207E80009091B8019230A8F48091E800877F8093E8009093B40145DD8091B401882331F420
:207EA0008091E30087FD02C081E001C084E08EBB6CDC8091E80083FF0AC08091EB0080624E
:207EC0008093EB008091E800877F8093E8000F900F90CF91DF911F910F91089508951F9360
:207EE0008EB3882361F01091E9001092E9008091E80083FF01C0E4DE17701093E9001F916F
:207F00000895F999FECF92BD81BDF89A992780B50895262FF999FECF1FBA92BD81BD20BDBD
:207F20000FB6F894FA9AF99A0FBE01960895F894FFCF4341544552494E4100777700080031
:207F40000000000000080112011001020000084123360001000201000109023E00020100FF
:207F600080320904000001020201000524001001042402040524060001070582030800FF0C
:207F800009040100020A000000070504021000010705830210000104030904220341007216
:207FA000006400750069006E006F0020004C0065006F006E006100720064006F0000001836
:1A7FC00003410072006400750069006E006F0020004C004C004300000000D7
:00000001FF
