:100000000C944A080C9472080C9472080C947208B0
:100010000C9472080C9472080C9472080C94720878
:100020000C9472080C9472080C94A7130C94191475
:100030000C9472080C9472080C9472080C94720858
:100040000C9472080C9472080C9472080C94720848
:100050000C9472080C9472080C9472080C94420A66
:100060000C9472080C9472080C9472080C94720828
:100070000C9472080C9472080C9472080C94720818
:100080000C94870C0C9472080C9472080C947208EF
:100090000C9472080C9472080C9472080C947208F8
:1000A0000C9472080C9472080C947208084AD73B9E
:1000B0003BCE016E84BCBFFDC12F3D6C74319ABD37
:1000C00056833DDA3D00C77F11BED9E4BB4C3E915B
:1000D0006BAAAABE000000803F05A84CCDB2D44E4A
:1000E000B93836A9020C50B9918688083CA6AAAA4C
:1000F0002ABE000000803F00F0F89C8E8783878E28
:100100009CF8F00000FEFF0303030303070EFCF856
:100110000000FEFF0303030303070EFCF80000FFCB
:10012000FF00000000000000FFFF0000FEFF8383CF
:10013000838383C7EE7C380000F8FC0E07030303BB
:10014000070EFCF800003F7FE0C08080C0E07F3FEA
:10015000FFFF01010101010101FFFF0000FFFF0C92
:100160000C0C0C1C3E77E3C100007FFFC0C0C0C078
:10017000C0E0703F1F00001F3F70E0C0C0C0E070D3
:100180003F1F00007FFFC1C1C1C1C1E3773E1C001A
:10019000001F3F70E0C0C0C0E0703F1F00000000C3
:1001A0000001FFFF01000000D5F08D14A1C881CF30
:1001B000D9F1AF20008778008F7003FFFFFFFF01A8
:1001C000FC0231EC0303C438837803FFFFFFFF1EFA
:1001D00084710EE01F00FF007F807FFFFFFF1F4044
:1001E000BF00FF00000F10E609F007FFFFFFFEF859
:1001F00003BC401FE000FF00FE01FCFFFFFFFF010A
:10020000FC07F00F00F00FE01F60FFFFFFFFFF0093
:10021000FF007F8000010EF803FC01CFFFFFFFFE0F
:10022000E00FF007F880601FC03F80E7FFFFFF830B
:100230003C4299648300000404E810E8E808E8E818
:1002400010E806000000006020100D121E121E12A1
:100250000D10206000000000000000000000000001
:10026000000000000000000000000000000000008E
:10027000000000000000000000000000000000007E
:10028000000000000000000000000000000000006E
:1002900000000000FF0101010101010101FF000058
:1002A000FF0000000000000000000000000000004F
:1002B000000000000000000000000000000000003E
:1002C000000000000000000000000000000000002E
:1002D000000000000000000000000000000000001E
:1002E000000000000000000000000000000000000E
:1002F00000000000000000000000000000000000FE
:1003000000000000C0A090909090909090909090ED
:1003100090909090FF0000000000000000FFC0A03F
:100320009F9090909090909090909090909050305E
:10033000F0000000000000000000000000000000CD
:1003400000000000000000000000000000000000AD
:10035000000000000000000000000000000000009D
:10036000000000000000000000000000000000008D
:10037000000000000000000000000000000000007D
:1003800000000000FF00000000000000000000006E
:10039000000000000000000000000000000000005D
:1003A00000000000000000000000000000FF0080CE
:1003B0007F000000000000000000000000000000BE
:1003C000000000000000000000000000000000002D
:1003D000000000000000000000000000000000001D
:1003E000000000000000000000000000000000000D
:1003F00000000000000000000000000000000000FD
:1004000000000000010101010101010101010101E0
:1004100001010101FF0000000000000000FF0101D8
:10042000FF010101010101010101010101010100BF
:1004300000000000000000000000000000000000BC
:1004400000000000000000000000000000000000AC
:10045000000000000000000000000000000000009C
:10046000000000000000000000000000000000008C
:10047000000000000000000000000000000000007C
:10048000000000000000000000000000000000006C
:1004900000000000FF0000000000000000FF00005E
:1004A000FF0000000000000000000000000000004D
:1004B000000000000000000000000000000000003C
:1004C000000000000000000000000000000000002C
:1004D000000000000000000000000000000000001C
:1004E000000000000000000000000000000000000C
:1004F00000000000000000000000000000000000FC
:1005000000000000000000000000000000000000EB
:1005100000000000FF0000000000000000FF0000DD
:10052000FF000000000000000000000000000000CC
:1005300000000000000000000000000000000000BB
:1005400000000000000000000000000000000000AB
:10055000000000000000000000000000000000009B
:10056000000000000000000000000000000000008B
:10057000000000000000000000000000000000007B
:10058000000000000000000000000000000000006B
:1005900000000000FF0000000000000000FF00005D
:1005A000FF0000000000000000000000000000004C
:1005B000000000000000000000000000000000003B
:1005C000000000000000000000000000000000002B
:1005D000000000000000000000000000000000001B
:1005E000000000000000000000000000000000000B
:1005F00000000000000000000000000000000000FB
:1006000000000000000000000000000000000000EA
:1006100000000000FF8080808080808080FF80401C
:100620003F0000000000000000000000000000008B
:1006300000000000000000000000000000000000BA
:1006400000000000000000000000000000000000AA
:10065000000000000007057D417D0507007F417512
:100660001575417F007F417D415F417F007F416380
:10067000497F0000007F41751D07007F415D417F7C
:10068000007F41751177447C007F415D5577007F85
:1006900041555D770000007F415D417F007F417DD6
:1006A000415F417F007F41555D7700000000FFFF03
:1006B000FF000000FFFFFF000000FFFFFF00000041
:1006C00022772288DC8822772288DC882277228899
:1006D000DC882277220000000000000000000000FB
:1006E000000000000000000000000000000000000A
:1006F00000808080808080808080800000000000FA
:1007000000000000000000000000000000000000E9
:1007100000000000000000000000000000000000D9
:100720000000000000000000000000000000FFFFCB
:10073000FF000000FFFFFF000000FFFFFF000000C0
:1007400022772288DD8822772288DD882277228816
:10075000DD88227722000000000000000000000079
:1007600000000000E020202020202020202038262B
:10077000212020202020202020202021263A2A2A43
:100780002E2424242420202060C00000000000002B
:100790000000000000000000000000000000000059
:1007A0000000000000008080808080800000FFFF4B
:1007B000FF000000FFFFFF000000FFFFFF00000040
:1007C000227722081D08227722081D082277220896
:1007D0001D08227722000000000000000000000039
:1007E00000000000FF80808080808080808000008A
:1007F00000000000000000000000000000000000F9
:100800000000808080808080C06021212121121220
:1008100012121212121212121212121212121212B8
:10082000121212121221405E405E5E403F00FFFF36
:10083000FF000000FFFFFF000000FFFFFF000000BF
:10084000FFFFFF000000FFFFFF000000FFFFFF00B1
:100850000000FFFFFF00001ED222222222222222BD
:100860002222222222222222222222222223222267
:100870002222222222222222222222222222222258
:100880002222232222222222222222222222222247
:1008900022222222222222322C202020202020202C
:1008A0004040408080800000000000000000FFFF0A
:1008B000FF000000FFFFFF000000FFFFFF0000003F
:1008C000FFFFFF000000FFFFFF000000FFFFFF0031
:1008D0000000FFFFFFF00C030000008080E06038A4
:1008E00030385098100C080C080C08060406344EDA
:1008F0004C36040604060406040302030203021B2A
:1009000026271A030203020302060406040604361D
:100910004C4E34060406080C080C080C1090583095
:10092000383070C0C000010102040810E000FFFF71
:10093000FF000000FFFFFF000000FFFFFF000000BE
:10094000FFFFFF000000FFFFFF000000FFFFFF00B0
:100950000000FFFFFF031C60808085879F98F0E701
:10096000A5A790888780808080808080808080801C
:100970008080808080808080808080808080808077
:100980008080808080808080808080808080808067
:10099000808080808080808080808080878890A711
:1009A000A5E7F0989F472510080402010000FFFF0B
:1009B000FF000000FFFFFF000000FFFFFF0000003E
:1009C000FFFFFF000000FFFFFF000000FFFFFF0030
:1009D0000000FFFFFF00000000000000000000001A
:1009E0000101060418107C62EA62DC40C040DC624F
:1009F000EA62DC40C040DC62EA62DC40C040DC62AB
:100A0000EA62DC40C040DC62EA62DC40C040DC629A
:100A1000EA62DC40C040DC62EA627C101804060135
:100A20000100000000000000000000000000FFFFC7
:100A3000FF000000FFFFFF000000FFFFFF000000BD
:100A4000FFFFFF000000FFFFFF000000FFFFFF00AF
:100A50000000FFFFFF00B00000A170E150964F269C
:100A6000900F1D070C009669004AE44A0048444074
:100A700000806810000F99FB8F9DBDBBFB77D4D41D
:100A8000DF1F1A1AFE7F5D5DFF805A0000A0A4AA36
:100A90000010BA3400FF5953F3FF9B9B9EFFB9B976
:100AA00096FF9595D19FF4940FFC295F91FF18381C
:100AB000F8FF9294FFFF95D5F7BFB5DDD7F18F8191
:100AC000F1F788C8F779C6467909FD9B090196F8C0
:100AD00000828182805071620077565600767637A8
:100AE00000A2B773010772060078275000733474B0
:100AF00000775176007F55F700477110003247723A
:100B0000007364730015A2750061679400009F6014
:100B100060F4F2F6F20102040810204080000000A8
:100B200000003E5B4F5B3E3E6B4F6B3E1C3E7C3E8F
:100B30001C183C7E3C181C577D571C1C5E7F5E1C9D
:100B400000183C1800FFE7C3E7FF0018241800FF57
:100B5000E7DBE7FF30483A060E2629792926407F51
:100B6000050507407F05253F5A3CE73C5A7F3E1C60
:100B70001C08081C1C3E7F14227F22145F5F005F4C
:100B80005F06097F017F006689956A60606060602A
:100B900094A2FFA29408047E040810207E2010086E
:100BA000082A1C08081C2A08081E101010100C1E09
:100BB0000C1E0C30383E3830060E3E0E060000008B
:100BC000000000005F00000007000700147F147F92
:100BD00014242A7F2A1223130864623649562050AF
:100BE0000008070300001C2241000041221C002ACB
:100BF0001C7F1C2A08083E08080080703000080886
:100C0000080808000060600020100804023E5149F6
:100C1000453E00427F400072494949462141494DC5
:100C2000331814127F1027454545393C4A4949314C
:100C300041211109073649494936464949291E00CB
:100C40000014000000403400000008142241141475
:100C5000141414004122140802015909063E415D92
:100C6000594E7C1211127C7F494949363E4141411F
:100C7000227F4141413E7F494949417F090909019C
:100C80003E414151737F0808087F00417F410020A9
:100C900040413F017F081422417F404040407F0295
:100CA0001C027F7F0408107F3E4141413E7F0909BD
:100CB00009063E4151215E7F0919294626494949C5
:100CC0003203017F01033F4040403F1F2040201F6F
:100CD0003F4038403F631408146303047804036101
:100CE00059494D43007F4141410204081020004111
:100CF00041417F040201020440404040400003079C
:100D0000080020545478407F2844443838444444F0
:100D100028384444287F385454541800087E090267
:100D200018A4A49C787F0804047800447D40002027
:100D300040403D007F1028440000417F40007C047B
:100D40007804787C080404783844444438FC182437
:100D5000241818242418FC7C08040408485454540B
:100D60002404043F44243C4040207C1C2040201CA0
:100D70003C4030403C44281028444C9090907C44A7
:100D800064544C44000836410000007700000041E4
:100D900036080002010204023C2623263C1EA1A1C3
:100DA00061123A4040207A385454555921555579AA
:100DB000412154547841215554784020545579406C
:100DC0000C1E5272123955555559395454545939CB
:100DD000555454580000457C410002457D420001B5
:100DE000457C40F0292429F0F0282528F07C545532
:100DF00045002054547C547C0A097F4932494949B2
:100E0000323248484832324A4848303A4141217AE1
:100E10003A42402078009DA0A07D39444444393DA9
:100E20004040403D3C24FF2424487E4943662B2F0C
:100E3000FC2F2BFF0929F620C0887E09032054547B
:100E400079410000447D413048484A3238404022D0
:100E50007A007A0A0A727D0D19317D2629292F28F8
:100E6000262929292630484D402038080808080836
:100E7000080808382F10C8ACBA2F102834FA000020
:100E80007B000008142A142222142A140895002238
:100E90000095AA005500AAAA55AA55AA000000FF6D
:100EA00000101010FF00141414FF001010FF00FFBA
:100EB0001010F010F0141414FC001414F700FF00CC
:100EC00000FF00FF1414F404FC141417101F10107A
:100ED0001F101F1414141F00101010F00000000049
:100EE0001F101010101F10101010F010000000FF45
:100EF000101010101010101010FF10000000FF1440
:100F00000000FF00FF00001F10170000FC04F41495
:100F1000141710171414F404F40000FF00F714144D
:100F20001414141414F700F7141414171410101FC9
:100F3000101F141414F4141010F010F000001F10FF
:100F40001F0000001F14000000FC140000F010F04F
:100F50001010FF10FF141414FF141010101F0000C5
:100F60000000F010FFFFFFFFFFF0F0F0F0F0FFFFD8
:100F7000FF0000000000FFFF0F0F0F0F0F38444469
:100F800038447C2A2A3E147E02020606027E027E35
:100F90000263554941633844443C04407E201E208E
:100FA00006027E020299A5E7A5991C2A492A1C4C33
:100FB0007201724C304A4D4D303048784830BC6236
:100FC0005A463D3E494949007E0101017E2A2A2AAE
:100FD0002A2A44445F444440514A444040444A51D0
:100FE000400000FF0103E080FF000008086B6B0871
:100FF0003612362436060F090F06000018180000B6
:10100000001010003040FF0101001F01011E0019F7
:101010001D1712003C3C3C3C0000000000080B0087
:10102000020202010009040000010202000005247E
:101030000010010524010101042402060524060014
:10104000010705810310004009040100020A0000A5
:10105000000705020240000007058302400000046B
:1010600003090412010002EF02014041233680000F
:10107000010102030141726475696E6F204C4C439B
:101080000041726475696E6F204C656F6E617264A9
:101090006F00411F11241FBECFEFDAE0DEBFCDBFCE
:1010A00011E0A0E0B1E0EAE1F9E402C005900D92A0
:1010B000A239B107D9F726E0A2E9B1E001C01D923B
:1010C000A038B207E1F718E0CAE4D8E004C02197DD
:1010D000FE010E948024C934D107C9F70E94491635
:1010E0000C948B240C940000CF92DF92EF92FF922D
:1010F0000F931F93CF93DF936C017A018B01C0E0B4
:10110000D0E0CE15DF0589F0D8016D918D01D601B3
:10111000ED91FC910190F081E02DC6010995892B9C
:1011200011F47E0102C02196ECCFC701DF91CF916F
:101130001F910F91FF90EF90DF90CF9008958091D5
:10114000AC010895089580919A01E0919801F09181
:101150009901882349F0CF010296909399018093D9
:101160009801859194910895CF01029690939901E9
:10117000809398018081918108956F927F928F92E0
:101180009F92AF92BF92CF92DF92EF92FF920F9316
:101190001F93CF93DF935C016B01102F98E0892E92
:1011A000912CE42EE694E694E694EE2DF0E0CA014C
:1011B00087709927892B41F5D5011796CD91DC9140
:1011C0001897C6019927BE010E9458249927D50176
:1011D00015966D917C911697EC9FA001ED9F500D97
:1011E000FC9F500D1124840F951FFB01E80FF91F80
:1011F000111106C0C22FC09520812C23208327C047
:10120000C081C22BC08323C0C22FD0E04770642EA0
:10121000712C7F0183E0EE0CFF1C8A95E1F79E01A3
:1012200001C0220F4A95EAF7012FA701B601C501B7
:101230000E94BD08C4018619970902C0D595C795BB
:101240008A95E2F72C2FA701485F5F4FAACFDF9165
:10125000CF911F910F91FF90EF90DF90CF90BF90B3
:10126000AF909F908F907F906F9008955F926F9254
:101270007F928F929F92AF92BF92CF92DF92EF9226
:10128000FF920F931F93CF93DF93EC016A3061F4C9
:101290008D859E859C878B872C898F859889820F69
:1012A000911D988B8F8777C0CB84DC84693031F4B3
:1012B00089E0C80ED11CDC86CB866DC0162FEF846A
:1012C000F8889DEFC9169FEFD90654F48B8990E0FA
:1012D00004962B853C85820F931F9C878B875BC070
:1012E0008F819885C816D9068CF78DEFE8168FEF99
:1012F000F80664F389859A85E816F9063CF76032AA
:1013000008F41FE780EE810F9FE9910F9A3118F4DE
:101310009FEFE91AF90A8C3011F08B3119F49FEF25
:10132000E91AF90A869594E0899F50011124360143
:1013300084E0680E711C46011170F401EC19FD097E
:10134000EA0DFB1DEB5AF54F8491111103C08F700C
:10135000582E04C0582E52948FE058228C81882336
:1013600061F001E089899A89892B09F000E02FE07A
:10137000A701B401CE010E94BD080989252DA7014E
:10138000B401CE010E94BD089FEF891A990A861404
:10139000970499F69BCF81E090E0DF91CF911F9168
:1013A0000F91FF90EF90DF90CF90BF90AF909F9004
:1013B0008F907F906F905F900895089580E090E007
:1013C00008950E9486243FB7F8948091D3019091AC
:1013D000D401A091D501B091D60126B5A89B05C036
:1013E0002F3F19F00196A11DB11D3FBFBA2FA92FA4
:1013F000982F8827820F911DA11DB11DBC01CD0121
:1014000042E0660F771F881F991F4A95D1F708950C
:101410008F929F92AF92BF92CF92DF92EF92FF9204
:101420006B017C010E94E3094B015C01C114D104F2
:10143000E104F104F1F00E94E309DC01CB01881919
:101440009909AA09BB09883E9340A105B10570F32B
:1014500021E0C21AD108E108F10888EE880E83E085
:10146000981EA11CB11CC114D104E104F10419F7A8
:10147000DDCFFF90EF90DF90CF90BF90AF909F9027
:101480008F9008951F920F920FB60F9211242F93F1
:101490003F938F939F93AF93BF93809192019091CD
:1014A0009301A0919401B09195013091D20123E074
:1014B000230F2D3720F40196A11DB11D05C026E88C
:1014C000230F0296A11DB11D2093D201809392019A
:1014D00090939301A0939401B09395018091D301CF
:1014E0009091D401A091D501B091D6010196A11D92
:1014F000B11D8093D3019093D401A093D501B093F3
:10150000D601BF91AF919F918F913F912F910F90F5
:101510000FBE0F901F9018952D9A0895BC0180E082
:1015200090E00C94080A8FB12CB193B130E0209573
:10153000309520743327A90123E0559547952A95C6
:10154000E1F7292F30E0209530952071332735952C
:10155000279535952795242B8095807F822B08959C
:1015600083B7817F83BF83B7816083BF889583B74B
:101570008E7F83BF08958EBD00000DB407FEFDCFA2
:1015800008951092AC013E983F9808953E9A3F9A74
:1015900081E08093AC01089560387105D0F4403447
:1015A0005105B8F4E5E1FBE080E1849FD001A0782B
:1015B0001124A60F4770E40FF11D8491A551BE4F71
:1015C000222319F06C91862B03C080956C918623A1
:1015D0008C9308952F923F924F925F926F927F92D9
:1015E0008F929F92AF92BF92CF92DF92EF92FF9233
:1015F0000F931F93CF93DF93CDB7DEB729970FB625
:10160000F894DEBF0FBECDBFFC016A3069F4248DB3
:10161000808D918D38E0239F800D911D1124918F35
:10162000808F178A168AAAC06D3009F4A7C09987DF
:101630008887F48C338C228C608C718C0689178996
:1016400000381105C4F0A885B9855C962C915C978B
:10165000422F50E056968D919C915797B6E02B9F64
:10166000800D911D1124E885F985978B868B258D3A
:1016700021116EC083C0F0E46F16710424F7C80115
:1016800025E0F29E800D911D112418161906DCF636
:101690008F2D90E09C838B83C301A8E0FA9E800D80
:1016A000911D11241816190674F6B5E06B9FB00150
:1016B0001124FB01E35EF44FFA83E98330E088856F
:1016C000998504969E838D83E981FA81E490353073
:1016D00009F4E12C430188E0482EE0FC02C0532CC1
:1016E00001C0522C51100BC0321009C0E6944A942C
:1016F0008B819C81880E991E4110EFCF1BC0680121
:101700008C2D801B8F1590F754018A2D88198F1509
:1017100068F4252DA501B6018D819E813F830E942D
:10172000CC0A9FEFA91AB90A3F81EFCFAFEFCA1ACF
:10173000DA0AE6CF3F5FEB81FC810E0F1F1F898124
:101740009A8101969A838983363009F0BDCF7BCF89
:101750006AEF64039001659F300D112420583F4FBC
:10176000281739075CF4A885B985ED91FC9111978C
:101770000190F081E02D6AE0CD01099581E090E0D3
:1017800029960FB6F894DEBF0FBECDBFDF91CF9183
:101790001F910F91FF90EF90DF90CF90BF90AF908F
:1017A0009F908F907F906F905F904F903F902F9081
:1017B0000895CF92DF92EF92FF920F931F93CF93F2
:1017C000DF930E94A308811520E8920761F48091BD
:1017D00071008D7F80937100109291004698479818
:1017E0001092CB018BC021E02093CB01813020E807
:1017F000920751F4809196019091970190939901ED
:10180000809398010E94A30897FD05C02091CA010A
:10181000222309F43FC02091C90121113BC021E0DE
:101820002093CC01EC01DF77209769F481E080936D
:10183000CD0146983FE9C32E3FE0D32EE12CF12C99
:10184000CAEFD0E014C08E0120E030E060E472E422
:101850008FE090E0A90198010E94572069017A0168
:1018600081E0C81AD108E108F1081092CD01E09199
:10187000E901F091EA010995811103C081E08093AB
:10188000CD018091CC018823B9F18091CD018111E6
:1018900033C003C01092CC01C5CF46992DC0479AE2
:1018A0000E94A308009771F09C01DE010E94AB200A
:1018B000DC01CB0129E0B595A795979587952A95E9
:1018C000D1F703C08FEF9FEFDC01109290002AE068
:1018D00020939100D0929900C09298008093CE01FD
:1018E0009093CF01A093D001B093D101809171006A
:1018F00082608093710002C04798D2CFDF91CF9170
:101900001F910F91FF90EF90DF90CF9008951F925D
:101910000F920FB60F9211242F933F934F935F9323
:101920006F937F938F939F93AF93BF93EF93FF93A7
:101930008091CE019091CF01A091D001B091D101C1
:10194000892B8A2B8B2B81F18091CD0181110BC0CA
:1019500098B180E4892788B98091CC01882319F057
:1019600088B1805888B98091CE019091CF01A09123
:10197000D001B091D101181619061A061B06B4F44D
:101980008091CE019091CF01A091D001B091D10171
:101990000197A109B1098093CE019093CF01A09343
:1019A000D001B093D10102C00E94D90BFF91EF91F9
:1019B000BF91AF919F918F917F916F915F914F9167
:1019C0003F912F910F900FBE0F901F9018959C0183
:1019D000E1E7F0E090819D7F908310929A01EBED1A
:1019E000F1E0F0939901E0939801F0939701E0936F
:1019F0009601318320837383628380E090E895832E
:101A000084830C94D90BEF92FF920F931F93CF9383
:101A1000DF9300D000D0CDB7DEB77B018901841BF6
:101A2000950BBC01990F880B990B0E944D229B01CD
:101A3000AC01C701801B910BBC01990F880B990B5E
:101A400029833A834B835C830E944D2229813A810A
:101A50004B815C810E943A2120E030E044E353E472
:101A60000E9470232BED3FE049E450E40E94A32143
:101A70000E9415222CE43FEFC901861B970B28E634
:101A800031E0B9010E94582488599E4FB9010E9443
:101A900058240F900F900F900F90DF91CF911F91CE
:101AA0000F91FF90EF900895CF92DF92EF92FF9207
:101AB000CF93DF93EC01CB0128E631E0B9010E941E
:101AC000582488599E4FB9010E945824BC01685679
:101AD0007140072E000C880B990B0E944D2225E3C4
:101AE0003AEF4EE85CE30E9470230E94DD236B0115
:101AF0007C01BE01DD0F880B990B0E944D229B01DA
:101B0000AC01C701B6010E9470239058DF91CF91BC
:101B1000FF90EF90DF90CF900895CF92DF92EF92F9
:101B2000FF92CF93DF93EC01CB0128E631E0B901BE
:101B30000E94582488599E4FB9010E945824BC0124
:101B400068567140072E000C880B990B0E944D229D
:101B500025E33AEF4EE85CE30E9470230E949E2149
:101B60006B017C01BE01DD0F880B990B0E944D2299
:101B70009B01AC01C701B6010E947023DF91CF9198
:101B8000FF90EF90DF90CF900895CF92DF92EF9289
:101B9000FF920F931F93CF93C09136010BE911E091
:101BA00081E1C82ED12CE12CF12CF801C1938F01D9
:101BB0000E943320A70196010E945720DC01CB012F
:101BC0000897A109B109C80FC03120F0C03418F03E
:101BD000CFE301C0C0E1F1E00C3A1F0731F780917B
:101BE000AB0180933601CF911F910F91FF90EF9041
:101BF000DF90CF9008954F925F926F927F928F9275
:101C00009F92AF92BF92CF92DF92EF92FF920F938B
:101C10001F93CF93DF931F92CDB7DEB78091AF01B3
:101C2000811178C081E08093AF010E94332028E3C6
:101C300030E040E050E00E9457206B017C0120E43E
:101C4000C20ED11CE11CF11CC092AD012C2D287FCD
:101C5000EC2DE695E695E695F0E0E556FE4F6080C2
:101C6000712C022F10E0618170E066197709072E50
:101C7000000C880B990B29830E944D224B015C01BB
:101C80002981285F622F70E0601B710B072E000C0A
:101C9000880B990B0E944D229B01AC01C501B40138
:101CA0000E94A3214B015C016C2D70E080E090E06C
:101CB0000E944B229B01AC01C501B4010E9470231C
:101CC0006B017C01B301770C880B990B0E944D22AC
:101CD0002B013C01B801110F880B990B0E944D227A
:101CE000A50194010E9470239B01AC01C301B201C4
:101CF0000E94BA209B01AC01C701B6010E94BB2023
:101D000020E030E040E450E40E94BA200E941C220F
:101D10006093AE010F90DF91CF911F910F91FF90D3
:101D2000EF90DF90CF90BF90AF909F908F907F907B
:101D30006F905F904F9008952FB7F89483E0809351
:101D4000E9009091E800892F807295FF04C090917E
:101D5000F20080E4891B2FBF0895CF93DF931F9279
:101D6000CDB7DEB76983DC01ED91FC910280F38190
:101D7000E02D41E050E0BE016F5F7F4F09950F906D
:101D8000DF91CF91089583E08093E9008091F20084
:101D9000882319F08AE38093E80008950E949C0E3E
:101DA00090E0089597FF04C09C0180E090E002C09D
:101DB00020E030E0821B930B77FF03C020E030E08F
:101DC00003C09B0160E070E0261B370B889FB001C9
:101DD000899F700D700D1124229FC001239F900DCB
:101DE000900D1124680F791F072E000C880B990B9A
:101DF0000E944D220E94EB230E941C22862F0895F0
:101E00008F929F92AF92BF92CF92DF92EF92FF920A
:101E10000F931F93CF93DF935C016B017A01809145
:101E20003E01882309F45BC08091DA01882309F41C
:101E300056C08091D80180FF05C08091E00082608B
:101E40008093E000E70110E00AEF83E0882E9AE338
:101E5000992E2097D9F10E949C0E81110AC0015041
:101E600009F43DC061E070E080E090E00E94080A63
:101E7000F0CF282F30E0C217D3070CF48C2F4FB7C8
:101E8000F8948092E9009091E80095FF1DC0282FFA
:101E900030E0C21BD30BF601982F915020F08191B6
:101EA0008093F100FACFC20ED31E112319F0909245
:101EB000E80009C08091E80085FD06C09092E80026
:101EC00011E0209709F010E04FBFC3CF1111C3CF2D
:101ED0005D9884E68093D7011E141F0444F081E0CE
:101EE00090E0F5019383828380E090E001C0C70118
:101EF000DF91CF911F910F91FF90EF90DF90CF90E6
:101F0000BF90AF909F908F9008952F923F924F92E5
:101F10005F926F927F928F929F92AF92BF92CF9279
:101F2000DF92EF92FF920F931F93CF93DF93CDB782
:101F3000DEB728970FB6F894DEBF0FBECDBF5A01AB
:101F4000822E912C9C01280D391D37FDC4C080388C
:101F500091050CF0C0C09B01200F311D37FDBBC0A7
:101F6000603471050CF0B7C0AB0177FF04C04427A3
:101F70005527461B570B477055279B0177FF02C01B
:101F8000295F3F4FE3E035952795EA95E1F777FF25
:101F900008C02150310968E070E0DB01A41BB50BDB
:101FA000AD01602F66956695669570E0077011F03B
:101FB0006F5F7F4FDB01A20FB31FBA83A983390183
:101FC0007694762C662477946794680E791EE12CBB
:101FD000F12C00E010E02301B0E84B0E511C68E04A
:101FE00070E0DB01A41BB50BBC83AB8369817A81F4
:101FF0002617370709F46FC02830310509F46BC084
:102000002F3FBFEF3B070CF45BC0B201600F711FA5
:10201000DB01A551BE4FBE83AD83D801A60DB71D10
:10202000A551BE4F6C0160E070E0681579050CF0B9
:1020300047C0E0E8CE16D10409F442C0D7FC34C052
:102040002F3FFFEF3F0709F442C0FB01EE0DFF1DDC
:10205000EA0DFB1DE491042E01C0EE0F0A94EAF78D
:102060003C90E329EC9341155105F1F027303105FF
:10207000D9F0FB01EE0DFF1DEA0DFB1DE4912E2EA4
:10208000312CF1010B8002C0F595E7950A94E2F737
:10209000F887EF83ED81FE813080EF81F885E329B9
:1020A0001F01ED81FE8120826F5F7F4FED81FE81F8
:1020B0003196FE83ED83FFEFCF1ADF0A1196B5CF7D
:1020C0002F5F3F4F00581F4FE80CF91C8FCF411571
:1020D000510579F6E9CF28960FB6F894DEBF0FBE0A
:1020E000CDBFDF91CF911F910F91FF90EF90DF90C7
:1020F000CF90BF90AF909F908F907F906F905F90A8
:102100004F903F902F90089520910A06282329F49C
:1021100090910906982381E009F480E008950097E2
:1021200069F0FC0101900020E9F73197AF01481BED
:10213000590BBC018BEE95E00C94740880E090E0A4
:1021400008958F929F92AF92BF920F931F93CF9358
:10215000DF93CDB7DEB7A1970FB6F894DEBF0FBE01
:10216000CDBF19A2423008F44AE08E010F5D1F4F27
:10217000842E912CA12CB12CA50194010E948920C0
:10218000E62FB901CA0101501109EA3014F4E05DEB
:1021900001C0E95CD801EC93232B242B252B61F79C
:1021A000C8010E948F10A1960FB6F894DEBF0FBE33
:1021B000CDBFDF91CF911F910F91BF90AF909F90B6
:1021C0008F90089580E0EBEEF1E081118FEF002415
:1021D00081938193819381930394D1F708958091A2
:1021E000EB018EBDECEEF1E081910DB407FEFDCF69
:1021F0008EBD85E0EB3EF807B9F70DB407FEFDCFC5
:1022000008955F926F927F928F929F92AF92BF924A
:10221000CF92DF92EF92FF920F931F93CF93DF93B2
:10222000EC018B017A01A901461B570B57FF03C034
:10223000519541955109C7018C1B9D0B97FF03C018
:10224000919581959109552453948417950714F01D
:10225000512C0AC09E2D8F2D7901292F382F9C2FAC
:102260008D2FE801092F182FEC16FD0654F4902F3E
:10227000812F8901292F382F9C2F8D2FE701E92EDF
:10228000F82E37016C1A7D0A5901A01AB10AB7FE5F
:1022900003C0B194A194B108630177FE03C08FEF2E
:1022A000C81AD80AD594C7940217130714F08FEFF1
:1022B00001C081E0882E880F9908EC16FD06B4F065
:1022C00021E0552019F0AE01B80102C0A801BE01FD
:1022D00084E096E00E94CC0ACA18DB08D7FE04C04E
:1022E000080D191DC60CD71C2196E7CFDF91CF91A1
:1022F0001F910F91FF90EF90DF90CF90BF90AF9024
:102300009F908F907F906F905F9008952F923F9253
:102310004F925F926F927F928F929F92AF92BF92F5
:10232000CF92DF92EF92FF920F931F93CF93DF93A1
:10233000CDB7DEB76C970FB6F894DEBF0FBECDBF3A
:10234000190149835A83285F3F4F3C872B879B01A4
:10235000770F440B550B298B3A8B4B8B5C8B9C0175
:10236000990F440B550B2D8B3E8B4F8B588FF101E2
:10237000E190F1901F01E981FA81C190D190FA8337
:10238000E983B701C6010E94D20E282F30E03C83BA
:102390002B839701A60160E070E080E090E00E944E
:1023A000030D98878F83F101C080D180E981FA8184
:1023B000E080F180B601C7010E94D20E482E512C58
:1023C0009601A70160E070E080E090E00E94030DBC
:1023D0003C0169897A898B899C890E944D224B0135
:1023E0005C01600E711EB301C2010E94540D9B017D
:1023F000AC016D897E898F89988D298F3A8F4B8F9B
:102400005C8F0E944D226B017C01B301C2010E94CE
:102410008D0D2B013C018F819885800F911F9E8728
:102420008D87BC018B819C810E94540D6F837887BE
:1024300089879A876D857E858B819C810E948D0D11
:102440006B837C838D839E83298D3A8D4B8D5C8D30
:10245000C501B4010E94BB200E9415226D877E87B2
:102460008F87988BA3019201C701B6010E94BB2000
:102470000E9415222B013C012F81388549855A8500
:10248000C501B4010E94BB200E9415224B015C01D2
:102490002B813C814D815E81C701B6010E94BB202A
:1024A0000E941522DC01CB012D853E85A201B401DD
:1024B0000E940111EB85FC852E163F0609F057CFCF
:1024C0006C960FB6F894DEBF0FBECDBFDF91CF91F3
:1024D0001F910F91FF90EF90DF90CF90BF90AF9042
:1024E0009F908F907F906F905F904F903F902F9034
:1024F0000895FC018091DA01811103C08FEF9FEFF5
:1025000008959FB7F89482E08093E9002091F2004B
:1025100030E01216130614F421E030E021153105E5
:1025200059F0289884E68093D9018091F100808346
:102530008091F200882319F09FBFC90108958BE6AE
:102540008093E800F9CF8091220681110DC082E0CE
:1025500080931E0684E080931F061092210610923D
:10256000200681E0809322068EE196E00895FC012A
:102570008485958597FD0BC09FB7F89482E0809382
:10258000E9008091F2009FBF90E0019608959FB707
:10259000F89482E08093E9008091F2009FBF90E080
:1025A000089540917E0650917F0620917C063091DF
:1025B0007D0642175307B4F49091E8009570E1F35B
:1025C0009091E80092FD19C08093F10080917E0601
:1025D00090917F0601968F739927892B19F48EEFBE
:1025E0008093E80080917E0690917F0601969093FB
:1025F0007F0680937E0681E0089580E00895DF9253
:10260000EF92FF920F931F93CF93DF93D82E8A01FF
:102610007B01E40EF51EEB01CE15DF0571F0D7FE50
:1026200003C0FE01849101C088810E94D1122196CD
:102630008111F2CF8FEF9FEF01C0C801DF91CF91E1
:102640001F910F91FF90EF90DF900895615030F04F
:102650002091F100FC0120830196F8CF289884E6B0
:102660008093D90108950F931F93CF93DF931F9207
:10267000CDB7DEB78C01FC018485958597FF0EC030
:10268000CE0101960E947912019719F4298130E058
:1026900002C02FEF3FEFF80135872487F8018485CA
:1026A00095850F90DF91CF911F910F910895CF9352
:1026B000DF931F92CDB7DEB7FC018485958597FD2A
:1026C00005C02FEF3FEF358724870BC0CE01019661
:1026D0000E947912019719F4898190E002C08FEF6E
:1026E0009FEF0F90DF91CF9108950F931F93CF939A
:1026F000DF931F92CDB7DEB782E0898342E450E0DA
:102700006DE170E180E80E94FF120E94A312DC01DB
:1027100012960D911C9113970115110569F0D801BE
:10272000ED91FC910280F381E02DBE016F5F7F4F40
:10273000C801099597FF07C089810F90DF91CF915C
:102740001F910F910895F80100851185E5CF1F9223
:102750000F920FB60F9211248F939F938091E100F7
:102760009091E100937F9093E10083FF0FC010925E
:10277000E90091E09093EB001092EC0092E39093CB
:10278000ED001092DA0198E09093F00082FF20C0F3
:1027900093E09093E9009091F200992319F09AE365
:1027A0009093E8009091D701992339F09091D70147
:1027B00091509093D701992389F19091D901992350
:1027C00039F09091D90191509093D901992341F119
:1027D00084FF10C08091E2008E7E81608093E200D1
:1027E0008091E1008F7E8093E1008091D8018E7E00
:1027F000806111C080FF16C08091E2008E7E8061F2
:102800008093E2008091E1008E7E8093E1008091D0
:10281000D8018E7E81608093D80104C05D9ACDCFAF
:10282000289AD6CF9F918F910F900FBE0F901F9037
:1028300018951F920F920FB60F921124CF92DF922C
:10284000EF92FF920F931F932F933F934F935F93BA
:102850006F937F938F939F93AF93BF93EF93FF9368
:10286000CF93DF93CDB7DEB76C97DEBFCDBF1092AD
:10287000E9008091E80083FFEDC168E0CE01459654
:102880000E94261382EF8093E8008D8987FF05C0A0
:102890009091E80090FFFCCF03C09EEF9093E8007A
:1028A000982F907609F0C6C09E892F89188D9111B6
:1028B0000CC0803829F480917B068093F10002C01F
:1028C0001092F1001092F10048C1422F50E0512BBC
:1028D000913051F4811141C14130510509F03DC1A0
:1028E00080917B068D7F0BC0933061F4811135C1DF
:1028F0004130510509F031C180917B06826080939F
:102900007B062BC1953041F48091E80080FFFCCF1D
:1029100020682093E30021C1963009F05FC0EB8C62
:10292000FC8C1092E90010927F0610927E06123005
:1029300091F510927D0610927C060E94751399E025
:10294000BE016F5F7F4FDB01E92F1D92EA95E9F72A
:1029500099831A8391E09E8390EA98879AEF9987EA
:1029600020917E0630917F06275F3F4F3C832B836B
:102970008D831092E90010927F0610927E06F092ED
:102980007D06E0927C0649E050E080E00E94FF1264
:102990000E947513E2C0F0927D06E0927C060E94D0
:1029A000A312DC011296ED90FC901397E114F10450
:1029B00009F4C0C0D701ED91FC910480F581E02DB0
:1029C000BE016B5E7F4FC7010995009719F00CF0AF
:1029D000C4C0C7C0F701E084F184E8CF973009F4A0
:1029E000C0C0983021F481E08093F100B6C09930E6
:1029F00009F0B3C0837009F0B4C0EAE7F1E081E008
:102A000021E036E39081992361F08093E9002093DF
:102A1000EB0091919093EC003093ED008F5F873045
:102A200089F78EE78093EA001092EA008F898093FD
:102A3000DA0193C08B8D9C8D1092E90010927F0675
:102A400010927E0690937D0680937C06898D81117D
:102A500056C08E899D89913A59F4813209F081C01E
:102A600047E050E067E371E080E00E94FF1275C02C
:102A7000913209F076C0833289F4888D90E0982FE6
:102A800088272F89822BA0E0B0E080933F019093AC
:102A90004001A0934101B09342015FC0803269F4CC
:102AA0008091E80082FFFCCF67E087E391E00E941D
:102AB00026138BEF8093E80006C0823209F04DC0E8
:102AC0008F8980933E0180917A06882319F0EEEF7A
:102AD000FAE002C0E0E0F8E080913701909138011F
:102AE000A0913901B0913A01803B9440A105B10514
:102AF00009F07BC080913E0180FF93C076C00E94A8
:102B0000A312DC0112960D911C911397011511056A
:102B100041F1D801ED91FC910190F081E02DBE01D1
:102B20006B5E7F4FC8010995811117C0F8010085C0
:102B30001185ECCF113009F44EC0133091F48F8918
:102B4000882309F445C0823081F440E860E181E8DF
:102B500090E10E94A81F882321F08EEF8093E80067
:102B600079C081E28093EB0075C0813029F440E8A0
:102B70006BE085E790E1EDCF833099F70E94A312D7
:102B8000DC011296ED90FC9013978E010F5F1F4FA2
:102B90006801E114F10479F0D701ED91FC91068010
:102BA000F781E02DB801C7010995080F111DF70144
:102BB000E084F184EECFD8011C92F6010190002050
:102BC000E9F73197BF016C197D0940E0C601C1CF1B
:102BD0006FE570E102C063E670E16115710509F20D
:102BE000FB01449150E080E840CF0FB6F894A895DF
:102BF00080916000886180936000109260000FBE39
:102C0000A895EE3F2AE0F20739F08091FE0A9091F4
:102C1000FF0A91838083A1CF1092FF0A1092FE0ACF
:102C20009CCFEE3F8AE0F80731F08081918190934C
:102C3000FF0A8093FE0A87E797E7918380839BE0F2
:102C400088E10FB6F894A895809360000FBE90932A
:102C5000600083CF6C960FB6F894DEBF0FBECDBF79
:102C6000DF91CF91FF91EF91BF91AF919F918F91A4
:102C70007F916F915F914F913F912F911F910F9194
:102C8000FF90EF90DF90CF900F900FBE0F901F90AE
:102C90001895CF93DF9300D000D0CDB7DEB77894EE
:102CA00084B5826084BD84B5816084BD85B5826051
:102CB00085BD85B5816085BD80916E008160809302
:102CC0006E0010928100809181008260809381006B
:102CD000809181008160809381008091800081607B
:102CE0008093800080919100826080939100809118
:102CF0009100816080939100809190008160809329
:102D000090008091C10084608093C1008091C100D7
:102D100082608093C1008091C10081608093C10076
:102D20008091C30081608093C3008091C000826065
:102D30008093C0008091C20081608093C200809126
:102D40007A00846080937A0080917A008260809318
:102D50007A0080917A00816080937A0080917A0075
:102D6000806880937A001092DA0110927B061092AC
:102D7000D8018091D70081608093D70080EA80934A
:102D8000D80089B5806189BD89B5826089BD09B4E3
:102D900000FEFDCF61E070E080E090E00E94080A54
:102DA0008091D8008F7C80618093D8008091E00072
:102DB000807F8093E0008091E1008E7E8093E1002F
:102DC0008DE08093E200559A209AEEEFFFE785911F
:102DD00094918B3F9C4D19F481E080937A0681ECAD
:102DE00080937C0085B1806F85B9249884B1866E0C
:102DF00084B95E9A5F988AB1806D8AB9769A6E9826
:102E000081B3806F81BB899880B38D7080BB80E572
:102E10008CBD81E08DBD85E090E00E948E0A5F9AB6
:102E200085E090E00E948E0A5E985C9868EAE62E43
:102E300061E0F62E1DE01E0DF70184910E94BB0A91
:102E4000FFEFEF1AFF0A1E11F7CF5C9A81E880931B
:102E5000640081E08093650000E014E080E00E945F
:102E6000BB0A01501109D1F70E94930A87FF1FC0C6
:102E70005C9885EA0E94BB0A5C9A2E982F982D9840
:102E8000809164008062809364000E94B00AFDCF4C
:102E90002D980E94930A8478843871F00E94930AD6
:102EA0008471843131F188EC90E00E948E0A0E9496
:102EB000930A82FDEDCF3AC00E948C0A88EC90E024
:102EC0000E948E0A2F9882E090E00E9441208F3F5E
:102ED00029F06FEF82E090E00E94492084EF91E0BA
:102EE0000E948E0A2F9A0E94930A84788438D9F31C
:102EF000D5CF0E948C0A88EC90E00E948E0A2E9812
:102F000082E090E00E944120882329F060E082E086
:102F100090E00E94492084EF91E00E948E0A2E9A50
:102F20000E94930A84718431D9F3BDCF0E948C0A28
:102F300082E090E00E944120882319F00E94C60A96
:102F400002C00E94C10A2E985EEEE52EFF24FA947C
:102F50000E94930A86FF04C02E9A2F9A2D9A3FC092
:102F60002CEFE2162FEFF20619F42E9A2F9806C0D6
:102F700038E1E316F10411F42F9A2D980E94E21023
:102F800000E128E548EF50E0B70184E190E00E94BD
:102F9000850F0E94EF108BE190E00E948E0A40EFB7
:102FA000E4164FEFF40621F48AEF90E00E948E0AB7
:102FB0005FEFE51AF50A89E1E816F10449F68CEBB2
:102FC00092E00E948E0A0E948C0AE0910406F09121
:102FD00005060190F081E02D84E096E0099582E3FA
:102FE00090E00E948E0A0E94930A8111F8CF81E23C
:102FF00080930B06809164008E7F809364008091A3
:103000007A00806480937A0080917A0086FDFCCFFC
:1030100000917800109179000E94E30920E030E0EF
:10302000980111270027600F711F821F931F6115E0
:1030300071058105910511F00E943820809164008E
:103040008160809364000E94E21010921906109231
:10305000180610921706109216060E94C50D0E94BF
:10306000FB0D2FB7F8948091920190919301A0915C
:103070009401B09195012FBF409110065091110617
:10308000609112067091130620911406222341F0DC
:1030900020910C06821B80931506109214065CC6C4
:1030A00084179507A607B70738F4481B423008F481
:1030B00053C60E94B00A50C621E0209314068093A4
:1030C0000C0690930D06A0930E06B0930F06209168
:1030D0000B06820F911DA11DB11D809310069093C8
:1030E0001106A0931206B0931306809107069091E3
:1030F00008060196909308068093070680910906BA
:1031000080930A060E94930A809309060E94E210A7
:1031100010921906109218061092170610921606B1
:10312000809135018111A9C584E00E948410882313
:10313000E9F08091AC01882319F00E94C10A02C015
:103140000E94C60A62E370E088EE93E00E94E70CFA
:103150006091AC0182E090E069830E944120698126
:10316000681721F082E090E00E9449201091AF01A1
:103170001123E9F06091AD01E62FE695E695E6951D
:10318000F0E0862F90E0E556FE4F218130E0AC0163
:10319000485F5F4F6770461B5109608170E0887F10
:1031A00099270E94030D9093C1018093C0018091E3
:1031B000BC01882371F1C090B801D090B901E090B2
:1031C000BA01F090BB0120E030E040E053E4C701D9
:1031D000B6010E946323181644F020E030E0A901F4
:1031E000C701B6010E94992187FD1092BC0120E021
:1031F00030E040E852E46091B4017091B5018091F3
:10320000B6019091B7010E946323181614F410922E
:10321000BC018091BC01882399F1112389F1E090D0
:10322000AD01F12C0091AE016091B8017091B9012E
:103230008091BA019091BB010E941522AB0160916F
:10324000B4017091B5018091B6019091B7019701D9
:1032500025503109421753079CF0265F3F4F421714
:10326000530774F410E00E941522C80105976817EF
:10327000790734F00B5F1F4F601771070CF474C5AA
:103280003090C201E32DE695E695E695F0E0E5562F
:10329000FE4FA180B12C832D90E0E080F12CAC0199
:1032A000485F5F4F232D2770421B51099501B701DD
:1032B000887F99270E94030D9093C8018093C701CE
:1032C000232D287F022F10E0B5016E197F09072EEC
:1032D000000C880B990B2C830E944D224B015C0142
:1032E0002C81285F622F70E0601B710B072E000C91
:1032F000880B990B0E944D229B01AC01C501B401C2
:103300000E94A3214B015C01632D70E080E090E0FE
:103310000E944B229B01AC01C501B4010E947023A5
:103320002B013C01B701FF0C880B990B0E944D2229
:103330006B017C01B801110F880B990B0E944D2283
:10334000A50194010E9470239B01AC01C701B60145
:103350000E94BA209B01AC01C301B2010E94BB20B4
:1033600020E030E040E450E40E94BA206093C301C2
:103370007093C4018093C5019093C6018091BC01F4
:10338000882309F44EC0C090B801D090B901E090F4
:10339000BA01F090BB010091B2011091B3016091AC
:1033A00008017091090180910A0190910B010E941E
:1033B0001522DC01CB01B8010E948D0D9B01AC01EF
:1033C000C701B6010E94BB206093B8017093B90198
:1033D0008093BA019093BB01C090B401D090B50125
:1033E000E090B601F090B701609104017091050181
:1033F00080910601909107010E941522DC01CB010A
:10340000B8010E94540D9B01AC01C701B6010E9496
:10341000BB206093B4017093B5018093B601909383
:10342000B7012DEC3CEC4CE45DE360910801709138
:10343000090180910A0190910B010E94BA204B0171
:103440005C01609308017093090180930A019093D5
:103450000B012DEC3CEC4CE45EE3609104017091B7
:10346000050180910601909107010E94BA202DEC80
:103470003CEC4CE45DE30E94BA206B017C0160935C
:10348000040170930501809306019093070120E0E9
:1034900030E0A901C501B4010E94992187FF08C04D
:1034A000109208011092090110920A0110920B016A
:1034B00020E030E0A901609108017091090180913C
:1034C0000A0190910B010E94992118165CF020E0EE
:1034D00030E0A901C701B6010E949921181614F025
:1034E0001092BC0180913401882309F474C00E94B9
:1034F000930A87FF03C033943092C2010E94930A5B
:1035000084FF05C08091C20181508093C2018091E7
:10351000C201883018F488E08093C2018091C20112
:1035200087FF17C01092C2010E94C50D1092BC0106
:103530001092AF010E94FB0D88EC80930301109262
:10354000020180910706909108069093B101809343
:10355000B0012091C2018091AD0190E0821B9109E0
:103560000A973CF48091AF01882319F021502093F1
:10357000C2010E94930A86FF09C0809100019091C8
:103580000101019790930101809300010E94930A29
:1035900085FF09C0809100019091010101969093EF
:1035A0000101809300018091000190910101853B10
:1035B000910534F084EB90E0909301018093000139
:1035C000809100019091010197FF7BC01092010151
:1035D0001092000176C00E94930A86FF03C03394C4
:1035E0003092C2010E94930A85FF05C08091C201FA
:1035F00081508093C2018091C201883018F488E024
:103600008093C2018091C20187FF17C01092C2014E
:103610000E94C50D1092BC011092AF010E94FB0DDB
:1036200088EC80930301109202018091070690912B
:1036300008069093B1018093B0012091C20180915E
:10364000AD0190E0821B91090A973CF48091AF0193
:10365000882319F021502093C2010E94930A87FF0A
:1036600009C08091000190910101019690930101A0
:10367000809300010E94930A84FF09C08091000199
:103680009091010101979093010180930001809135
:103690000001909101018B35910534F08AE590E0AD
:1036A00090930101809300018091000190910101AC
:1036B0001816190634F0A1E0B0E0B0930101A09310
:1036C000000188E00E948410882309F46AC0809178
:1036D000BC01811166C06BE470E08EEE92E00E9446
:1036E000E70C81E08093BC010091C7011091C801F3
:1036F0008091000190910101080F191F1093B301EF
:103700000093B201B8018AE090E00E948D0D9B0108
:10371000AC016091C20170E080E090E02C833983BD
:103720004A835B830E944D222C8139814A815B81CF
:103730000E94BB206093B8017093B9018093BA01D5
:103740009093BB01C090C301D090C401E090C5012B
:10375000F090C601B8018AE090E00E94540D9B01F0
:10376000AC01C701B6010E94BB206093B401709305
:10377000B5018093B6019093B70120E030E040EAB4
:1037800050E4209308013093090140930A015093BB
:103790000B012093040130930501409306015093DF
:1037A00007012CE9E22E21E0F22E0BE911E080E086
:1037B00090E0D7012D917D016C01B8E0CB0ED11CBA
:1037C000F80161918F0130E070E0A6010E940111C3
:1037D000C6018038910569F78091BC01882309F4FE
:1037E00069C0C090B401D090B501E090B601F090EE
:1037F000B7016091B8017091B9018091BA019091BF
:10380000BB010E941C22062F10E0A12CB12C0551F7
:103810001E4FB5010B2C000C880B990B0E944D22FA
:10382000A70196010E94992187FF44C04A2D477045
:103830008A2D869586958695F80120E8829FE00D71
:10384000F11D1124208130E081E090E0042E02C0BF
:10385000880F991F0A94E2F78223932302C095955B
:1038600087954A95E2F7019721F03FEFA31AB30A33
:10387000D0CF1092BC016DE770E082E390E00E942F
:10388000E70C20E030E040E05EE36091B801709129
:10389000B9018091BA019091BB010E9470230E94EE
:1038A0001522FB01E556FE4F80818C5F803408F0C5
:1038B0008FE3808380910201811193C0809107067C
:1038C00080FD0CC08091030190E000E120E145E320
:1038D00052E06AE070E008970E94850FC0900301F3
:1038E000D12C86010850110996E0E92EF12C21E037
:1038F000A701B80184E096E00E94CC0A4FEFE41AD9
:10390000F40A50E4E516F10491F78601085F1F4FB1
:1039100086E0E82EF12C21E0A701B80184E096E0D2
:103920000E94CC0A8FEFE81AF80A90E4E916F10435
:1039300091F780910706909108062091B00130918F
:10394000B101DC01A21BB30BDD9708F44AC021E0F2
:10395000209302019093B1018093B0018091C20144
:1039600090E09601295F3F4F28173907D4F1B7E05F
:10397000CB1AD1088C159D05A4F1809171008D7F23
:103980008093710010929A01EBEDF1E0F0939901B0
:10399000E0939801F0939701E09396018CE291E017
:1039A0009093DC018093DB0186E990E09093DE0147
:1039B0008093DD019093E0018093DF019093E20119
:1039C0008093E10122E330E03093E4012093E301AE
:1039D0009093E6018093E5010E94D90B82E08093E9
:1039E000350180910201882309F475C062E470E01A
:1039F00086E490E00E94E70CE0900301F12CF8E0EF
:103A0000EF1AF108609107067091080671956195AB
:103A100071096F73772700E420E145EB51E0C7019E
:103A20000E94850F60910706709108067195619557
:103A30007109606C7F6F20E145EB51E0C7010E9486
:103A4000850F80910706909108062091B001309172
:103A5000B101821B930B4F9708F43DC0C090C20187
:103A6000D12C9601205F3F4FC901330FAA0BBB0B2E
:103A700020E1C21AD1080D2C000CEE08FF08C81670
:103A8000D906EA06FB06DCF49C01AD012C193D09C0
:103A90004E095F0969F02C8339834A835B830E9456
:103AA00033202C8139814A815B810E94572003C0D9
:103AB00060E070E0CB01C60ED71EE81EF91EC09272
:103AC00003011092020180910706909108069093DD
:103AD000B1018093B0016090C7017090C8018090DF
:103AE000C3019090C401A090C501B090C601C5016A
:103AF000B4010E9415226B017C012090C201312C7F
:103B0000830120E231E04AE251E0C1010E948611C6
:103B10008091AF01882381F00091C0011091C10113
:103B20006091AE0170E08091AD012CE031E046E1A2
:103B300051E090E00E948611809100019091010176
:103B4000680E791EB3018AE090E00E94540D9B013B
:103B5000AC01B3018AE090E02C8339834A835B8314
:103B60000E948D0D2B013C012C8139814A815B81A2
:103B7000C501B4010E94BB200E9415224B015C01CB
:103B8000B101032C000C880B990B0E944D22A3015C
:103B900092010E94BB200E9415229401AB01B60144
:103BA000C1010E9401118091BC018823E1F0609164
:103BB000B4017091B5018091B6019091B7010E9456
:103BC00015226B017C016091B8017091B90180915F
:103BD000BA019091BB010E94152221E0A60184E068
:103BE00096E00E94CC0A00E010E0E12CF12C20E0ED
:103BF000A701B80184E096E00E94CC0A3FEFE31AE7
:103C0000F30A45E0E416F10491F70F5F1F4F003807
:103C1000110559F71092F9051092F8051092F70561
:103C20001092F6051092FB051092FA0580E891E0DB
:103C30000E948F106091BD0170E080E090E04AE04A
:103C40000E94A11080E390E09093F9058093F8051D
:103C50009093F7058093F6051092FB051092FA05F4
:103C600086E891E00E948F106091BE017091BF01C3
:103C700080E090E04AE00E94A110809135018130FF
:103C8000A1F500E420E845E556E060E070E080E062
:103C900090E00E94850F88E00E94841081111092AC
:103CA000350184E00E948410882331F09091340122
:103CB00081E08927809334011092F9051092F8056C
:103CC0001092F7051092F605ACE3B0E0B093FB0557
:103CD000A093FA0580913401882319F08EE891E0D1
:103CE00002C080E991E00E948F10809135018230FE
:103CF00089F500E420E845E552E060E070E080E00E
:103D000090E00E94850FECE3F0E0F093F905E0937A
:103D1000F805F093F705E093F60522E130E03093E3
:103D2000FB052093FA056091BE017091BF0180E010
:103D300090E04AE00E94A11088E00E94841088234D
:103D400049F081E0809335011092BF011092BE01CD
:103D50001092BD010E94EF1080E090E0892B09F4E1
:103D600080C90E9400007DC98091C201E81AF10853
:103D7000F7FE03C0F194E194F108E092BD01809157
:103D8000BE019091BF018E0D9F1D9093BF01809346
:103D9000BE011092BC011092AF01809171008D7F25
:103DA0008093710010929A014BED51E0509399016C
:103DB00040939801509397014093960182E390E0DD
:103DC0009093DC018093DB0184E690E09093DE0128
:103DD0008093DD0128E230E03093E0012093DF01A1
:103DE0009093E2018093E10180E090E89093E401F8
:103DF0008093E3010E94D90B43CA0F931F93CF9383
:103E0000DF938C0181E090E00E94412080FF31C06F
:103E10008AE090E00E9441209FEF980F9E3F48F576
:103E200022E330E0D80157963C932E93569728E32F
:103E300030E059963C932E935897CBE0D0E0D801D0
:103E4000ED91FC910190F081E02D682FC80109955A
:103E5000CE010E9441202196C131D10581F70E94F7
:103E6000EF1088EE93E0DF91CF911F910F910C94AA
:103E70008E0ADF91CF911F910F91089504970C94B2
:103E8000FD1EEAE2F6E01382128288EE93E0A0E0E3
:103E9000B0E084839583A683B7838BE491E091831C
:103EA00080838FEF9FEF95878487E0E0F6E01382B1
:103EB00012821186128620E1238790878783108AD9
:103EC000118A128A138A148A89E691E09183808389
:103ED00087E791E095838483178A168A118E108E66
:103EE00081E0828F138E848F158E2FE938E0309316
:103EF000EA012093E90120E030E83093E8012093C3
:103F0000E70146983E9A47983F9AEBEEF5E0138218
:103F100012822DE531E0318320832BEE31E03683B0
:103F2000258320E830E03087278320E430E03287A3
:103F3000218795E0948B838B16861586108A1786C9
:103F40001486138681E090E0928B818B1482089511
:103F5000CF92DF92EF92FF920F931F93CF93DF9355
:103F60001F92CDB7DEB7182F062FE42E862F880FAD
:103F70008E5F99830E94D11283E00E94D112F12EAC
:103F8000C12E9981D92E8C2D8F19801798F4F601A6
:103F9000E7FE02C0849101C080810E94D112182FD7
:103FA00080E00E94D1128123FFEFCF1ADF0A811136
:103FB000EACF01C081E00F90DF91CF911F910F9167
:103FC000FF90EF90DF90CF9008958F929F92AF92E5
:103FD000BF92CF92DF92EF92FF92CF93DF93EC01EB
:103FE000688179818A819B816115710581059105BF
:103FF00021F464E279ED8BE597E02DE133EF41E0C8
:1040000050E00E94572049015A019B01AC01A7EAE8
:10401000B1E40E9476206B017C01ACEEB4EFA50107
:1040200094010E948420DC01CB018C0D9D1DAE1DEE
:10403000BF1DB7FF03C00197A109B04888839983CA
:10404000AA83BB83BC01CD019F77DF91CF91FF9005
:10405000EF90DF90CF90BF90AF909F908F9008959A
:104060000E94E51F089583E491E00E94E51F0895F2
:1040700060934301709344018093450190934601FE
:104080000895F999FECF92BD81BDF89A992780B520
:104090000895262FF999FECF1FBA92BD81BD20BD8C
:1040A0000FB6F894FA9AF99A0FBE01960895052E64
:1040B00097FB1EF400940E946E2057FD07D00E94CB
:1040C000892007FC03D04EF40C946E205095409547
:1040D000309521953F4F4F4F5F4F089590958095B4
:1040E000709561957F4F8F4F9F4F08950E94AB2031
:1040F000A59F900DB49F900DA49F800D911D11243C
:104100000895B7FF0C9476200E947620821B930BB3
:104110000895A1E21A2EAA1BBB1BFD010DC0AA1F08
:10412000BB1FEE1FFF1FA217B307E407F50720F020
:10413000A21BB30BE40BF50B661F771F881F991F9B
:104140001A9469F760957095809590959B01AC01E4
:10415000BD01CF010895A29FB001B39FC001A39FED
:10416000700D811D1124911DB29F700D811D1124B0
:10417000911D08955058BB27AA270E94D2200C9465
:1041800015230E94DC2238F00E94E32220F039F44B
:104190009F3F19F426F40C94B2220EF4E095E7FB4D
:1041A0000C94AC22E92F0E943A2358F3BA17620705
:1041B00073078407950720F079F4A6F50C945C2327
:1041C0000EF4E0950B2EBA2FA02D0B01B901900132
:1041D0000C01CA01A0011124FF27591B99F0593F76
:1041E00050F4503E68F11A16F040A22F232F342FBE
:1041F0004427585FF3CF469537952795A795F0400C
:104200005395C9F77EF41F16BA0B620B730B840B20
:10421000BAF09150A1F0FF0FBB1F661F771F881FD8
:10422000C2F70EC0BA0F621F731F841F48F4879530
:1042300077956795B795F7959E3F08F0B0CF939522
:10424000880F08F09927EE0F9795879508950E949B
:10425000DC2260F080E891E009F49EEF0E94E32206
:1042600028F040E851E071F45EEF0CC00C94B222EB
:104270000C945C23E92FE0780E943A2340F3092E46
:10428000052AB1F3261737074807590738F00E2ECD
:1042900007F8E02569F0E025E0640AC0EF6307F85D
:1042A000009407FADB01B9019D01DC01CA01AD01EF
:1042B000EF930E94BA210E9415230E946A215F9108
:1042C000552339F02BED3FE049E450FD49EC0C94C7
:1042D000BB200895DF93DD27B92FBF7740E85FE368
:1042E0001616170648075B0718F4D92F0E94682393
:1042F0009F938F937F936F930E942B24ECEAF0E0BF
:104300000E94B5220E9415232F913F914F915F91FA
:104310000E948323DD2351F09058A2EA2AED3FE06A
:1043200049EC5FE3D0785D270E94D220DF910C94A6
:1043300015230E94882208F481E008950E94EC224F
:10434000E3950C9426230E94B7210C9415230E9418
:10435000E32258F00E94DC2240F029F45F3F29F06C
:104360000C94AC2251110C945D230C94B2220E9447
:104370003A2368F39923B1F3552391F3951B550B19
:10438000BB27AA2762177307840738F09F5F5F4F28
:10439000220F331F441FAA1FA9F335D00E2E3AF067
:1043A000E0E832D091505040E695001CCAF72BD07F
:1043B000FE2F29D0660F771F881FBB1F26173707D0
:1043C0004807AB07B0E809F0BB0B802DBF01FF2702
:1043D00093585F4F3AF09E3F510578F00C94AC2211
:1043E0000C945D235F3FE4F3983ED4F38695779574
:1043F0006795B795F7959F5FC9F7880F911D9695BB
:10440000879597F90895E1E0660F771F881FBB1F16
:10441000621773078407BA0720F0621B730B840BC3
:10442000BA0BEE1F88F7E09508950E941C2268944D
:10443000B1110C945D2308950E94422388F09F5788
:1044400098F0B92F9927B751B0F0E1F0660F771FB8
:10445000881F991F1AF0BA95C9F714C0B13091F0AE
:104460000E945C23B1E008950C945C23672F782FA1
:104470008827B85F39F0B93FCCF386957795679573
:10448000B395D9F73EF490958095709561957F4FDF
:104490008F4F9F4F0895E89409C097FB3EF4909585
:1044A0008095709561957F4F8F4F9F4F9923A9F00D
:1044B000F92F96E9BB279395F6958795779567959C
:1044C000B795F111F8CFFAF4BB0F11F460FF1BC0E0
:1044D0006F5F7F4F8F4F9F4F16C0882311F096E973
:1044E00011C0772321F09EE8872F762F05C0662321
:1044F00071F096E8862F70E060E02AF09A95660FDA
:10450000771F881FDAF7880F9695879597F9089592
:10451000990F0008550FAA0BE0E8FEEF16161706D4
:10452000E807F907C0F012161306E407F50798F03C
:10453000621B730B840B950B39F40A2661F0232B55
:10454000242B252B21F408950A2609F4A140A695D1
:104550008FEF811D811D089597F99F6780E870E0B6
:1045600060E008959FEF80EC0895DF93CF931F9351
:104570000F93FF92EF92DF927B018C01689406C04B
:10458000DA2EEF010E948323FE01E894A591259184
:10459000359145915591A6F3EF010E94D220FE017D
:1045A0009701A801DA9469F7DF90EF90FF900F91DF
:1045B0001F91CF91DF91089500240A9416161706D3
:1045C00018060906089500240A9412161306140604
:1045D000050608950C94B2220E944223D8F3E89471
:1045E000E0E0BB279F57F0F02AED3FE049EC06C022
:1045F000EE0FBB0F661F771F881F28F0B23A6207C5
:104600007307840728F0B25A620B730B840BE3958F
:104610009A9572F7803830F49A95BB0F661F771F12
:10462000881FD2F790480C943124092E0394000C73
:1046300011F4882352F0BB0F40F4BF2B11F460FF3C
:1046400004C06F5F7F4F8F4F9F4F0895EF93E0FF40
:1046500007C0A2EA2AED3FE049EC5FEB0E94D220BE
:104660000E9415230F90039401FC9058E9EDF0E0AF
:104670000C94442457FD9058440F551F59F05F3F48
:1046800071F04795880F97FB991F61F09F3F79F074
:1046900087950895121613061406551FF2CF4695F6
:1046A000F1DF08C0161617061806991FF1CF869578
:1046B0007105610508940895E894BB27662777275C
:1046C000CB0197F908950E94882208F48FEF08958E
:1046D0009B01AC0160E070E080E89FE30C94A321B3
:1046E0000E9483230C9415230E94DC2238F00E9440
:1046F000E32220F0952311F00C94AC220C94B2220A
:1047000011240C945D230E943A2370F3959FC1F30A
:10471000950F50E0551F629FF001729FBB27F00D6F
:10472000B11D639FAA27F00DB11DAA1F649F6627C4
:10473000B00DA11D661F829F2227B00DA11D621F13
:10474000739FB00DA11D621F839FA00D611D221FCD
:10475000749F3327A00D611D231F849F600D211DB1
:10476000822F762F6A2F11249F5750409AF0F1F034
:1047700088234AF0EE0FFF1FBB1F661F771F881F9D
:1047800091505040A9F79E3F510580F00C94AC2207
:104790000C945D235F3FE4F3983ED4F386957795C0
:1047A0006795B795F795E7959F5FC1F7FE2B880F43
:1047B000911D9695879597F908959F930E94EC22F5
:1047C0000F9007FCEE5F0C94262319F416F40C945A
:1047D000B2220C942F240E944223B8F39923C9F3E8
:1047E000B6F39F57550B87FF0E943D240024A0E697
:1047F00040EA900180585695979528F4805C660FA2
:10480000771F881F20F026173707480730F4621BF0
:10481000730B840B202931294A2BA69517940794F2
:10482000202531254A2758F7660F771F881F20F06B
:1048300026173707480730F4620B730B840B200DE3
:10484000311D411DA09581F7B901842F9158880F22
:104850009695879508959B01AC010C9470239F3F1A
:1048600031F0915020F4879577956795B795880F2B
:10487000911D9695879597F9089591505040660F30
:10488000771F881FD2F708959F938F937F936F931D
:10489000FF93EF939B01AC010E947023EF91FF9176
:1048A0000E94B5222F913F914F915F910C947023FC
:1048B00097FB072E16F4009407D077FD09D00E94CD
:1048C0006C2407FC05D03EF4909581959F4F089588
:1048D000709561957F4F0895AA1BBB1B51E107C0DE
:1048E000AA1FBB1FA617B70710F0A61BB70B881F80
:1048F000991F5A95A9F780959095BC01CD0108950F
:10490000EE0FFF1F0590F491E02D099481E090E0F7
:0A491000F8940C948B24F894FFCF68
:10491A005A0001C80000004000004040FCFFFCFFB4
:10492A0004000400FCFFFCFF04000400FCFFFCFF81
:10493A00FCFFFCFF04000400FCFFF8FF080008006D
:10494A00F8FFF8FF01014000E1000000000000FF4D
:10495A00FFFFFF0100000000000000AD0E000FCEB7
:10496A000EC30EB712571333130000000036097432
:10497A0008DE09DD0900000000EA0A7408DE09DD24
:10498A0009FD1EFCFF00003E1F00C18081000000DF
:10499A004C4153543A00504F494E54533A00410047
:0249AA004200C9
:00000001FF
